:100000000C942A000C9452230C9481230C944700E6
:100010000C9447000C9447000C9447000C94470044
:100020000C9447000C9447000C9447000C94470034
:100030000C9447000C94B0230C9447000C94470098
:100040000C9447000C9447000C9447000C94470014
:100050000C94470011241FBECFE5D8E0DEBFCDBF12
:1000600012E0A0E6B0E0E0E3FAE402C005900D92F1
:10007000AA3CB107D9F712E0AAECB2E001C01D9288
:10008000A23EB107E1F70E948D110C9416250C9445
:100090000000EF92FF920F931F937B018C0120E0F1
:1000A00030E040E05FE40E94490388238CF0C801FF
:1000B000B70120E030E040E05FE40E94C1010E940F
:1000C00007049B01AC01205030404040504806C01E
:1000D000C801B7010E9407049B01AC01B901CA0124
:1000E0001F910F91FF90EF900895A0E0B0E0EBE733
:1000F000F0E00C949124DC012B01FA019C919230E8
:1001000008F439C1EB018881823008F433C194309E
:1001100069F4843009F02FC111969C91119789815F
:10012000981709F428C1ADE4B1E025C1843009F481
:1001300021C18230A9F4923009F01DC19A01AD01AC
:1001400088E0EA010990AE01E90109929E0181501F
:10015000C1F7E201898111969C918923818308C1AD
:10016000923009F407C112962D903C901397EB0141
:100170008A819B811496AD90BD90CD90DC901797AD
:10018000EC80FD800E811F819101281B390BB90184
:1001900037FF04C066277727621B730B6032710537
:1001A0000CF061C0121613066CF537014801062EDB
:1001B00004C096948794779467940A94D2F721E0C8
:1001C00030E040E050E004C0220F331F441F551FB1
:1001D0006A95D2F721503040404050402E213F21B7
:1001E00040235123211531054105510521F021E01E
:1001F00030E040E050E079018A01E628F72808293C
:1002000019293CC0232BD1F1260E371E350146019A
:10021000062E04C096948794779467940A94D2F734
:1002200021E030E040E050E004C0220F331F441FC3
:10023000551F6A95D2F721503040404050402A2146
:100240003B214C215D21211531054105510521F04E
:1002500021E030E040E050E059016A01A628B728CB
:10026000C828D9280BC0821593052CF01C01AA249C
:10027000BB24650103C0EE24FF24870111969C91E5
:10028000D20111968C91981709F445C0992339F041
:10029000A80197012A193B094C095D0906C0A6016E
:1002A00095012E193F09400B510B57FD08C01182D3
:1002B0003382228224833583468357831DC081E0A5
:1002C00081833382228288279927DC01821B930B4A
:1002D000A40BB50B84839583A683B7830DC0220F2F
:1002E000331F441F551F24833583468357838281E0
:1002F000938101979383828324813581468157813D
:10030000DA01C9010197A109B1098F5F9F4FAF4F72
:10031000BF4328F30BC0918333822282EA0CFB1C7B
:100320000C1D1D1DE482F5820683178383E0808304
:10033000248135814681578157FF1AC0C901AA27F8
:1003400097FDA095BA2F81709070A070B0705695EF
:10035000479537952795822B932BA42BB52B848318
:100360009583A683B7838281938101969383828349
:10037000DF0101C0D201CD01CDB7DEB7E2E10C94BF
:10038000AD24A0E2B0E0E7ECF1E00C949D24698399
:100390007A838B839C832D833E834F835887E9E048
:1003A000EE2EF12CEC0EFD1ECE010196B7010E943F
:1003B000F8058E010F5E1F4FCE010596B8010E9411
:1003C000F8058A8991E089278A8BC701B801AE01B7
:1003D000475E5F4F0E9475000E942305A096E6E0ED
:1003E0000C94B924A0E2B0E0E8EFF1E00C949D2475
:1003F00069837A838B839C832D833E834F835887C5
:10040000F9E0EF2EF12CEC0EFD1ECE010196B701A6
:100410000E94F8058E010F5E1F4FCE010596B801B0
:100420000E94F805C701B801AE01475E5F4F0E9408
:1004300075000E942305A096E6E00C94B924A0E282
:10044000B0E0E5E2F2E00C94912469837A838B8337
:100450009C832D833E834F835887CE010196BE0136
:10046000675F7F4F0E94F805CE010596BE016F5E63
:100470007F4F0E94F8059985923088F089898230F3
:10048000C8F0943019F4823051F404C0843029F457
:10049000923081F48DE491E0C6C0923049F420E0BE
:1004A0009A858A89981321E02A87CE010996BBC0D4
:1004B000823049F420E09A858A89981321E02A8BBA
:1004C000CE014196B0C02D843E844F8458886D88FB
:1004D0007E888F88988CEE24FF248701AA24BB2471
:1004E000650140E050E060E070E0E0E0F0E0C10174
:1004F00081709070892BE9F0E60CF71C081D191D1E
:100500009A01AB012A0D3B1D4C1D5D1D80E090E062
:10051000A0E0B0E0E614F7040805190520F481E036
:1005200090E0A0E0B0E0BA01A901480F591F6A1F8E
:100530007B1FAA0CBB1CCC1CDD1C97FE08C081E0F5
:1005400090E0A0E0B0E0A82AB92ACA2ADB2A3196B6
:10055000E032F10549F0660C771C881C991C569412
:10056000479437942794C3CFFA85EA892B893C892D
:100570008B859C85280F391F2E5F3F4F17C0CA01FE
:1005800081709070892B61F016950795F794E79428
:1005900080E090E0A0E0B0E8E82AF92A0A2B1B2BC3
:1005A00076956795579547952F5F3F4F77FDE7CF36
:1005B0000CC0440F551F661F771F17FD4160EE0CDE
:1005C000FF1C001F111F21503040403090E05907A0
:1005D00090E0690790E4790760F32B8F3C8FDB0193
:1005E000CA018F779070A070B07080349105A1051A
:1005F000B10561F447FD0AC0E114F10401051105DC
:1006000029F0405C5F4F6F4F7F4F40781A8EFE1786
:1006100011F081E08A8F4D8F5E8F6F8F78A383E01A
:10062000898FCE0149960E942305A096E2E10C94A1
:10063000AD24A8E1B0E0EFE1F3E00C949D246983E0
:100640007A838B839C832D833E834F83588789E0F5
:10065000E82EF12CEC0EFD1ECE010196B7010E9492
:10066000F8058E010F5E1F4FCE010596B8010E945E
:10067000F8058985823040F08989823028F0C701E9
:10068000B8010E94700601C08FEF6896E6E00C94F6
:10069000B924A8E1B0E0EFE4F3E00C949D24698371
:1006A0007A838B839C832D833E834F83588789E095
:1006B000E82EF12CEC0EFD1ECE010196B7010E9432
:1006C000F8058E010F5E1F4FCE010596B8010E94FE
:1006D000F8058985823040F08989823028F0C70189
:1006E000B8010E94700601C08FEF6896E6E00C9496
:1006F000B924A8E1B0E0EFE7F3E00C949D2469830E
:100700007A838B839C832D833E834F83588789E034
:10071000E82EF12CEC0EFD1ECE010196B7010E94D1
:10072000F8058E010F5E1F4FCE010596B8010E949D
:10073000F8058985823040F08989823028F0C70128
:10074000B8010E94700601C081E06896E6E00C9452
:10075000B924A8E0B0E0EFEAF3E00C949A249B01FE
:10076000AC0183E08983DA01C9018827B7FD83954D
:100770009927AA27BB27B82E211531054105510518
:1007800019F482E089833AC08823A9F0203080E000
:10079000380780E0480780E8580729F460E070E0F7
:1007A00080E09FEC30C0EE24FF248701E21AF30AB8
:1007B000040B150B02C079018A018EE1C82ED12CE1
:1007C000DC82CB82ED82FE820F831887C801B701DD
:1007D0000E94D40401971816190684F4082E04C048
:1007E000EE0CFF1C001F111F0A94D2F7ED82FE824F
:1007F0000F831887C81AD90ADC82CB82BA82CE014D
:1008000001960E9423052896E9E00C94B624ACE0FA
:10081000B0E0EDE0F4E00C94A12469837A838B834B
:100820009C83CE010196BE016B5F7F4F0E94F8054D
:100830008D81823061F1823050F1843021F48E81DB
:10084000882351F12EC02F81388537FD20C06E815D
:100850002F3131051CF06623F9F023C08EE190E0C2
:10086000821B930B29853A854B855C8504C0569580
:100870004795379527958A95D2F76623B1F050951D
:100880004095309521953F4F4F4F5F4F0EC020E070
:1008900030E040E050E009C02FEF3FEF4FEF5FE75F
:1008A00004C020E030E040E050E8B901CA012C96D5
:1008B000E2E00C94BD24A8E0B0E0E1E6F4E00C94A2
:1008C00099247B018C01611571058105910519F44D
:1008D00082E0898360C083E089838EE1C82ED12CB9
:1008E000DC82CB82ED82FE820F831887C801B701BC
:1008F0000E94D404FC013197F7FF3BC02227332725
:100900002E1B3F0B57016801022E04C0D694C794DA
:10091000B794A7940A94D2F740E050E060E070E00A
:1009200081E090E0A0E0B0E004C0880F991FAA1F0A
:10093000BB1F2A95D2F70197A109B1098E219F21EA
:10094000A023B1230097A105B10521F041E050E0BB
:1009500060E070E04A295B296C297D294D835E8324
:100960006F8378878EE190E08E1B9F0B9C838B8337
:1009700012C0309781F00E2E04C0EE0CFF1C001F39
:10098000111F0A94D2F7ED82FE820F831887CE1AC8
:10099000DF0ADC82CB821A82CE0101960E942305F7
:1009A0002896EAE00C94B524EF92FF920F931F93E0
:1009B0007B018C0180E0E81680E0F80681E0080702
:1009C00080E0180788F48FEFE816F104010511059F
:1009D00031F028F088E090E0A0E0B0E017C080E0BF
:1009E00090E0A0E0B0E012C080E0E81680E0F806F9
:1009F00080E0080781E0180728F088E190E0A0E097
:100A0000B0E004C080E190E0A0E0B0E020E230E09F
:100A100040E050E0281B390B4A0B5B0B04C01695D5
:100A20000795F794E7948A95D2F7F701EB5AFE4FB2
:100A30008081281B310941095109C9011F910F917A
:100A4000FF90EF900895DF92EF92FF920F931F9324
:100A5000FC01E480F58006811781D180808182309D
:100A600048F480E090E0A0E1B0E0E82AF92A0A2BFF
:100A70001B2BA5C0843009F49FC0823021F4EE24E2
:100A8000FF24870105C0E114F1040105110519F4E3
:100A9000E0E0F0E096C0628173819FEF62387907F1
:100AA0000CF05BC022E83FEF261B370B2A313105E3
:100AB0002CF020E030E040E050E02AC0B801A7016F
:100AC000022E04C076956795579547950A94D2F7FC
:100AD00081E090E0A0E0B0E004C0880F991FAA1F59
:100AE000BB1F2A95D2F70197A109B1098E219F2139
:100AF000A023B1230097A105B10521F081E090E08A
:100B0000A0E0B0E09A01AB01282B392B4A2B5B2BDC
:100B1000DA01C9018F779070A070B07080349105B0
:100B2000A105B10539F427FF09C0205C3F4F4F4FA5
:100B30005F4F04C0215C3F4F4F4F5F4FE0E0F0E05C
:100B40002030A0E03A07A0E04A07A0E45A0710F0DE
:100B5000E1E0F0E079018A0127C06038710564F5B1
:100B6000FB01E158FF4FD801C7018F779070A0704B
:100B7000B07080349105A105B10539F4E7FE0DC0D0
:100B800080E490E0A0E0B0E004C08FE390E0A0E05B
:100B9000B0E0E80EF91E0A1F1B1F17FF05C01695CF
:100BA0000795F794E794319687E016950795F794A3
:100BB000E7948A95D1F705C0EE24FF248701EFEF73
:100BC000F0E06E2F679566276795902F9F77D794F3
:100BD000DD24D7948E2F8695492F462B582F5D29DB
:100BE000B701CA011F910F91FF90EF90DF90089518
:100BF000FC01DB01408151812281622F6F7770E01F
:100C0000221F2227221F9381892F880F822B282FB2
:100C100030E0991F9927991F11969C9311972115E0
:100C20003105A9F5411551056105710511F482E001
:100C300037C082E89FEF13969C938E9312979A0188
:100C4000AB0167E0220F331F441F551F6A95D1F790
:100C500083E08C930DC0220F331F441F551F129643
:100C60008D919C911397019713969C938E93129755
:100C7000203080E0380780E0480780E4580758F3C8
:100C800014962D933D934D935C93179708952F3FA2
:100C9000310579F4411551056105710519F484E0B8
:100CA0008C93089564FF03C081E08C9312C01C9262
:100CB00010C02F57304013963C932E93129783E029
:100CC0008C9387E0440F551F661F771F8A95D1F7D5
:100CD000706414964D935D936D937C93179708956C
:100CE0001F93DC01FB019C91923008F447C0808186
:100CF000823008F443C0943051F411961C91843032
:100D000099F58181682F70E0611B71093FC08430C3
:100D100021F0923031F48230B9F18181882389F158
:100D20002DC011961C9111978230F1F08181181716
:100D3000D9F412962D913C91139782819381821759
:100D4000930794F028173907BCF014968D919D9164
:100D50000D90BC91A02D24813581468157812817A3
:100D600039074A075B0718F4112341F00AC08217BC
:100D70009307A407B50740F4112319F061E070E070
:100D800005C06FEF7FEF02C060E070E0CB011F9104
:100D90000895DF93CF930F92CDB7DEB7AAE2B0E00C
:100DA000EAE2F0E080818B7F8C93198289818260F6
:100DB0008983898184608983898180688983E0E46B
:100DC000F0E089818083E9E2F0E083E38083AAE2B6
:100DD000B0E0EAE2F0E0808188608C93AAE2B0E0C3
:100DE000EAE2F0E0808180618C930F90CF91DF91F7
:100DF0000895DF93CF930F92CDB7DEB7EBE2F0E02B
:100E00008081ECE2F0E080810F90CF91DF91089536
:100E1000DF93CF9300D0CDB7DEB78983EBE2F0E06C
:100E20008081ECE2F0E0898180830F900F90CF9178
:100E3000DF910895DF93CF93CDB7DEB7ABE2B0E09B
:100E4000EBE2F0E0808180688C93CF91DF91089590
:100E5000DF93CF9300D000D00F92CDB7DEB79D8344
:100E60008C831A8219C00E94F9068B838B8181338F
:100E700080F08B818B3768F48B810E94860E8A818B
:100E8000282F30E08C819D81FC01E20FF31F8B81C4
:100E900080838A818F5F8A838A81853020F38B816A
:100EA0008A3299F419820EC08981282F30E08C8112
:100EB0009D81FC01E20FF31F80810E94860E8981D3
:100EC0008F5F89838981843078F30F900F900F9022
:100ED0000F900F90CF91DF910895DF93CF93CDB70F
:100EE000DEB7AAE2B0E0EAE2F0E080818F7E8C9388
:100EF000CF91DF910895DF93CF93CDB7DEB7AAE20C
:100F0000B0E0EAE2F0E0808180618C93CF91DF91E4
:100F10000895DF93CF93CDB7DEB7A3E5B0E0E3E567
:100F2000F0E0808180648C93A3E5B0E0E3E5F0E03D
:100F3000808188608C93A3E5B0E0E3E5F0E08081F8
:100F40008F7E8C93A3E5B0E0E3E5F0E080818062E2
:100F50008C93A3E5B0E0E3E5F0E080818E7F8C9395
:100F6000A3E5B0E0E3E5F0E0808182608C93A3E547
:100F7000B0E0E3E5F0E080818B7F8C93CF91DF914F
:100F80000895DF93CF93CDB7DEB7AFE4B0E0EFE4E1
:100F9000F0E080818E7F8C93AFE4B0E0EFE4F0E08E
:100FA000808182608C93AEE4B0E0EEE4F0E080817A
:100FB00088608C93AEE4B0E0EEE4F0E08081806184
:100FC0008C93AFE4B0E0EFE4F0E080818F7B8C9312
:100FD000AFE4B0E0EFE4F0E0808180688C93E6E479
:100FE000F0E080E29EE491838083AEE4B0E0EEE442
:100FF000F0E080818E7F8C93AEE4B0E0EEE4F0E030
:10100000808182608C93AEE4B0E0EEE4F0E0808119
:101010008B7F8C93CF91DF910895DF93CF93CDB7E2
:10102000DEB7A5E4B0E0E5E4F0E0808180648C9375
:10103000A5E4B0E0E5E4F0E0808188608C93A5E46D
:10104000B0E0E5E4F0E080818F7E8C93A5E4B0E031
:10105000E5E4F0E0808180628C93A5E4B0E0E5E413
:10106000F0E080818E7F8C93A5E4B0E0E5E4F0E0D1
:10107000808182608C93A5E4B0E0E5E4F0E08081BB
:101080008B7F8C93CF91DF910895DF93CF930F9255
:10109000CDB7DEB78983E2E5F0E0898180830F90E8
:1010A000CF91DF910895DF93CF930F92CDB7DEB745
:1010B0008983ECE5F0E0898180830F90CF91DF9107
:1010C0000895DF93CF930F92CDB7DEB78983E4E421
:1010D000F0E0898180830F90CF91DF910895DF93B5
:1010E000CF930F92CDB7DEB78983E3E4F0E0898137
:1010F00080830F90CF91DF910895DF93CF9300D03D
:10110000CDB7DEB79A838983ECE4F0E089819A81D8
:10111000918380830F900F90CF91DF910895DF939B
:10112000CF9300D0CDB7DEB79A838983EAE4F0E0AD
:1011300089819A81918380830F900F90CF91DF9165
:101140000895DF93CF9300D0CDB7DEB79A8389831C
:10115000E8E4F0E089819A81918380830F900F9079
:10116000CF91DF910895DF93CF93CDB7DEB7ADE296
:10117000B0E0EDE2F0E0808181608C93ADE2B0E020
:10118000EDE2F0E080818D7F8C93AEE2B0E0EEE2A4
:10119000F0E0808181608C93ADE2B0E0EDE2F0E0C0
:1011A000808180618C93ADE2B0E0EDE2F0E080817F
:1011B00080648C93CF91DF910895DF93CF93CDB767
:1011C000DEB7ADE2B0E0EDE2F0E080818F7E8C939F
:1011D000ADE2B0E0EDE2F0E0808180648C93CF91ED
:1011E000DF910895DF93CF9300D0CDB7DEB7898329
:1011F000EFE2F0E089818083EEE2F0E08081EFE2CF
:10120000F0E080810F900F90CF91DF910895DF93F0
:10121000CF93CDB7DEB7AFE5B0E0EFE5F0E080818A
:1012200080688C93CF91DF910895DF93CF93CDB7F2
:10123000DEB7AFE5B0E0EFE5F0E080818F778C932B
:10124000CF91DF910895DF93CF93CDB7DEB7A5E5BA
:10125000B0E0E5E5F0E0808181608C93A5E5B0E049
:10126000E5E5F0E0808182608C93ABE5B0E0EBE5F2
:10127000F0E0808180648C93CF91DF910895DF93BB
:10128000CF93CDB7DEB7A5E5B0E0E5E5F0E080812E
:1012900084608C93A5E5B0E0E5E5F0E080818860AE
:1012A0008C93ABE5B0E0EBE5F0E0808180688C9357
:1012B000CF91DF910895DF93CF93CDB7DEB7A4E54B
:1012C000B0E0E4E5F0E0808180648C93ABE5B0E0D1
:1012D000EBE5F0E0808180628C93CF91DF910895FF
:1012E000DF93CF93CDB7DEB727970FB6F894DEBF65
:1012F0000FBECDBF89836A834B838B81813009F018
:101300006FC08981282F30E03F832E838E819F819B
:101310008130910549F12E813F81223031052CF435
:101320008E819F81009761F0D2C02E813F81223053
:10133000310571F18E819F8183309105E9F1C7C03C
:10134000ABE3B0E0EBE3F0E08081482F8A81282F07
:1013500030E081E090E0022E02C0880F991F0A94CD
:10136000E2F7842B8C93B3C0A8E3B0E0E8E3F0E0AD
:101370008081482F8A81282F30E081E090E0022E82
:1013800002C0880F991F0A94E2F7842B8C939FC0A8
:10139000A5E3B0E0E5E3F0E08081482F8A81282FC3
:1013A00030E081E090E0022E02C0880F991F0A947D
:1013B000E2F7842B8C938BC0A2E3B0E0E2E3F0E091
:1013C0008081482F8A81282F30E081E090E0022E32
:1013D00002C0880F991F0A94E2F7842B8C9377C080
:1013E0008B81882309F073C08981282F30E03D83E9
:1013F0002C838C819D818130910559F12C813D8117
:10140000223031052CF48C819D81009769F05FC0FA
:101410002C813D812230310589F18C819D81833081
:10142000910509F440C053C0ABE3B0E0EBE3F0E05A
:101430008081482F8A81282F30E081E090E0022EC1
:1014400002C0880F991F0A94E2F7809584238C9339
:101450003EC0A8E3B0E0E8E3F0E08081482F8A8155
:10146000282F30E081E090E0022E02C0880F991F03
:101470000A94E2F7809584238C9329C0A5E3B0E019
:10148000E5E3F0E08081482F8A81282F30E081E079
:1014900090E0022E02C0880F991F0A94E2F780950F
:1014A00084238C9314C0A2E3B0E0E2E3F0E08081F7
:1014B000482F8A81282F30E081E090E0022E02C080
:1014C000880F991F0A94E2F7809584238C932796BE
:1014D0000FB6F894DEBF0FBECDBFCF91DF91089558
:1014E000DF93CF93CDB7DEB727970FB6F894DEBF63
:1014F0000FBECDBF89836A834B838B81813009F016
:101500006FC08981282F30E03F832E838E819F8199
:101510008130910549F12E813F81223031052CF433
:101520008E819F81009761F0D2C02E813F81223051
:10153000310571F18E819F8183309105E9F1C7C03A
:10154000AAE3B0E0EAE3F0E08081482F8A81282F07
:1015500030E081E090E0022E02C0880F991F0A94CB
:10156000E2F7842B8C93B3C0A7E3B0E0E7E3F0E0AD
:101570008081482F8A81282F30E081E090E0022E80
:1015800002C0880F991F0A94E2F7842B8C939FC0A6
:10159000A4E3B0E0E4E3F0E08081482F8A81282FC3
:1015A00030E081E090E0022E02C0880F991F0A947B
:1015B000E2F7842B8C938BC0A1E3B0E0E1E3F0E091
:1015C0008081482F8A81282F30E081E090E0022E30
:1015D00002C0880F991F0A94E2F7842B8C9377C07E
:1015E0008B81882309F073C08981282F30E03D83E7
:1015F0002C838C819D818130910559F12C813D8115
:10160000223031052CF48C819D81009769F05FC0F8
:101610002C813D812230310589F18C819D8183307F
:10162000910509F440C053C0AAE3B0E0EAE3F0E05A
:101630008081482F8A81282F30E081E090E0022EBF
:1016400002C0880F991F0A94E2F7809584238C9337
:101650003EC0A7E3B0E0E7E3F0E08081482F8A8155
:10166000282F30E081E090E0022E02C0880F991F01
:101670000A94E2F7809584238C9329C0A4E3B0E018
:10168000E4E3F0E08081482F8A81282F30E081E078
:1016900090E0022E02C0880F991F0A94E2F780950D
:1016A00084238C9314C0A1E3B0E0E1E3F0E08081F7
:1016B000482F8A81282F30E081E090E0022E02C07E
:1016C000880F991F0A94E2F7809584238C932796BC
:1016D0000FB6F894DEBF0FBECDBFCF91DF91089556
:1016E000DF93CF9300D000D0CDB7DEB789836A8374
:1016F0008981282F30E03C832B838B819C81813032
:101700009105D1F02B813C81223031052CF48B8165
:101710009C81009761F01EC02B813C8122303105F5
:1017200081F08B819C818330910581F013C0EBE3C4
:10173000F0E08A8180830EC0E8E3F0E08A81808354
:1017400009C0E5E3F0E08A81808304C0E2E3F0E0D1
:101750008A8180830F900F900F900F90CF91DF912F
:101760000895DF93CF9300D000D0CDB7DEB7898343
:101770006A838981282F30E03C832B838B819C8175
:1017800081309105D1F02B813C81223031052CF440
:101790008B819C81009761F01EC02B813C8122309F
:1017A000310581F08B819C818330910581F013C0DC
:1017B000EAE3F0E08A8180830EC0E7E3F0E08A810B
:1017C000808309C0E4E3F0E08A81808304C0E1E320
:1017D000F0E08A8180830F900F900F900F90CF914F
:1017E000DF910895DF93CF9300D000D00F92CDB753
:1017F000DEB78A836B8319828A81282F30E03D838C
:101800002C834C815D814130510541F18C819D815A
:101810008230910534F42C813D812115310561F030
:1018200052C04C815D814230510551F18C819D81C6
:1018300083309105B9F147C0E9E3F0E08081282FBA
:1018400030E08B81882F90E0A90102C05595479523
:101850008A95E2F7CA018170898335C0E6E3F0E03A
:101860008081282F30E08B81882F90E0A90102C071
:10187000559547958A95E2F7CA018170898323C0FF
:10188000E3E3F0E08081282F30E08B81882F90E027
:10189000A90102C0559547958A95E2F7CA01817062
:1018A000898311C0E0E3F0E08081282F30E08B8154
:1018B000882F90E0A90102C0559547958A95E2F7D7
:1018C000CA018170898389810F900F900F900F90CA
:1018D0000F90CF91DF910895DF93CF93CDB7DEB70F
:1018E000A7E2B0E0E7E2F0E0808180648C93A7E2B9
:1018F000B0E0E7E2F0E080818F778C93A7E2B0E080
:10190000E7E2F0E0808180628C93A6E2B0E0E6E25C
:10191000F0E0808181608C93A6E2B0E0E6E2F0E046
:10192000808182608C93A6E2B0E0E6E2F0E0808104
:1019300084608C93A6E2B0E0E6E2F0E0808180680B
:101940008C93CF91DF910895DF93CF9300D000D097
:1019500000D0CDB7DEB78D8380EA96E89C838B8379
:101960001A821982A7E2B0E0E7E2F0E08081807E8F
:101970008C93A7E2B0E0E7E2F0E090818D81892BC3
:101980008C93A6E2B0E0E6E2F0E0808180648C9384
:1019900005C089819A8101969A838983E6E2F0E005
:1019A000808129813A818B819C812817390789F7A9
:1019B000A6E2B0E0E6E2F0E0808180618C93E4E2B0
:1019C000F0E08081918126960FB6F894DEBF0FBEBD
:1019D000CDBFCF91DF9108950F931F93DF93CF93E6
:1019E000CDB7DEB727970FB6F894DEBF0FBECDBFD9
:1019F0008A836B834C832D831F830E838A816B8143
:101A000040E00E9470098A816D8140E00E94700967
:101A10008A816D8141E00E947009198227C0898105
:101A2000282F30E08E819F81022E02C096958795E7
:101A30000A94E2F781709070882331F08A816C817A
:101A400041E00E94700905C08A816C8140E00E94DB
:101A500070098A816D8140E00E9470098A816D81E0
:101A600041E00E94700989818F5F8983898180317B
:101A7000B0F28A816B8141E00E94700927960FB60F
:101A8000F894DEBF0FBECDBFCF91DF911F910F91B4
:101A90000895DF93CF930F92CDB7DEB78983898105
:101AA0000E9453080F90CF91DF910895DF93CF9359
:101AB000CDB7DEB78FEF0E945308CF91DF91089525
:101AC000DF93CF9300D0CDB7DEB79A838983898126
:101AD0009A810E948F080F900F90CF91DF91089507
:101AE000DF93CF93CDB7DEB78FEF9FEF0E948F08C4
:101AF000CF91DF910895DF93CF93CDB7DEB76D9788
:101B00000FB6F894DEBF0FBECDBF8D8F80E060E0D2
:101B100040E00E94700982E06D8D0E94700B80E0B1
:101B200061E041E00E94700980E090E0A0E0B0E454
:101B3000898F9A8FAB8FBC8F698D7A8D8B8D9C8DA1
:101B400020E030E04AEF54E40E941F02DC01CB01A8
:101B50008D8B9E8BAF8BB88F6D897E898F89988D89
:101B600020E030E040E85FE30E94790388232CF412
:101B700081E090E09C8B8B8B3FC06D897E898F8943
:101B8000988D20E03FEF4FE757E40E9419031816A5
:101B90004CF5698D7A8D8B8D9C8D20E030E040E294
:101BA00051E40E941F02DC01CB01BC01CD010E9467
:101BB0004900DC01CB019C8B8B8B0FC088EC90E043
:101BC0009A8B898B89899A890197F1F79A8B898BEE
:101BD0008B899C8901979C8B8B8B8B899C89009727
:101BE00069F714C06D897E898F89988D0E9449009C
:101BF000DC01CB019C8B8B8B8B899C89988B8F878D
:101C00008F8598890197F1F7988B8F8780E061E045
:101C100040E00E94700980E090E0A0E0B0E48B8793
:101C20009C87AD87BE876B857C858D859E8520E0F2
:101C300030E04AEF54E40E941F02DC01CB018F83A5
:101C40009887A987BA876F81788589859A8520E0EA
:101C500030E040E85FE30E94790388232CF481E0C0
:101C600090E09E838D833FC06F81788589859A85BA
:101C700020E03FEF4FE757E40E94190318164CF598
:101C80006B857C858D859E8520E030E040E251E4C7
:101C90000E941F02DC01CB01BC01CD010E94490062
:101CA000DC01CB019E838D830FC088EC90E09C8388
:101CB0008B838B819C810197F1F79C838B838D8132
:101CC0009E8101979E838D838D819E81009769F708
:101CD00014C06F81788589859A850E944900DC014E
:101CE000CB019E838D838D819E819A838983898197
:101CF0009A810197F1F79A8389836D960FB6F894CC
:101D0000DEBF0FBECDBFCF91DF910895DF93CF939C
:101D1000CDB7DEB76D970FB6F894DEBF0FBECDBF5F
:101D20008D8F80E060E041E00E94700982E06D8D5F
:101D30000E94700B80E061E041E00E94700980E049
:101D400090E0A0E0B0E4898F9A8FAB8FBC8F698D53
:101D50007A8D8B8D9C8D20E030E04AEF54E40E9418
:101D60001F02DC01CB018D8B9E8BAF8BB88F6D89F1
:101D70007E898F89988D20E030E040E85FE30E9403
:101D8000790388232CF481E090E09C8B8B8B3FC0FF
:101D90006D897E898F89988D20E03FEF4FE757E46A
:101DA0000E94190318164CF5698D7A8D8B8D9C8DC8
:101DB00020E030E040E251E40E941F02DC01CB0150
:101DC000BC01CD010E944900DC01CB019C8B8B8BB7
:101DD0000FC088EC90E09A8B898B89899A8901974A
:101DE000F1F79A8B898B8B899C8901979C8B8B8BC4
:101DF0008B899C89009769F714C06D897E898F89CA
:101E0000988D0E944900DC01CB019C8B8B8B8B89C8
:101E10009C89988B8F878F8598890197F1F7988B8C
:101E20008F8780E061E040E00E94700980E090E0F0
:101E3000A0E0B0E48B879C87AD87BE876B857C85EF
:101E40008D859E8520E030E04AEF54E40E941F0219
:101E5000DC01CB018F839887A987BA876F8178854A
:101E600089859A8520E030E040E85FE30E947903AD
:101E700088232CF481E090E09E838D833FC06F81A6
:101E8000788589859A8520E03FEF4FE757E40E94E7
:101E9000190318164CF56B857C858D859E8520E091
:101EA00030E040E251E40E941F02DC01CB01BC01A2
:101EB000CD010E944900DC01CB019E838D830FC0C0
:101EC00088EC90E09C838B838B819C810197F1F758
:101ED0009C838B838D819E8101979E838D838D81D1
:101EE0009E81009769F714C06F81788589859A85EE
:101EF0000E944900DC01CB019E838D838D819E81F0
:101F00009A83898389819A810197F1F79A838983DA
:101F10006D960FB6F894DEBF0FBECDBFCF91DF91A7
:101F20000895DF93CF93CDB7DEB72E970FB6F89411
:101F3000DEBF0FBECDBF80E090E0A0E2B2E48B87B1
:101F40009C87AD87BE876B857C858D859E8520E0CF
:101F500030E04AEF54E40E941F02DC01CB018F8382
:101F60009887A987BA876F81788589859A8520E0C7
:101F700030E040E85FE30E94790388232CF481E09D
:101F800090E09E838D833FC06F81788589859A8597
:101F900020E03FEF4FE757E40E94190318164CF575
:101FA0006B857C858D859E8520E030E040E251E4A4
:101FB0000E941F02DC01CB01BC01CD010E9449003F
:101FC000DC01CB019E838D830FC088EC90E09C8365
:101FD0008B838B819C810197F1F79C838B838D810F
:101FE0009E8101979E838D838D819E81009769F7E5
:101FF00014C06F81788589859A850E944900DC012B
:10200000CB019E838D838D819E819A838983898173
:102010009A810197F1F79A83898388E30E947B0D67
:102020008CE00E947B0D81E00E947B0D2E960FB606
:10203000F894DEBF0FBECDBFCF91DF910895DF933F
:10204000CF9300D00F92CDB7DEB79B838A831982DE
:102050000EC08981282F30E08A819B81FC01E20F2C
:10206000F31F80810E94860E89818F5F8983898119
:10207000282F30E08A819B81FC01E20FF31F8081D1
:10208000882339F70F900F900F90CF91DF9108952B
:10209000DF93CF93CDB7DEB72C970FB6F894DEBFA2
:1020A0000FBECDBF9C878B878B859C859E012F5F44
:1020B0003F4FB9014AE050E00E94D124CE01019681
:1020C0000E941F102C960FB6F894DEBF0FBECDBF36
:1020D000CF91DF910895DF93CF9300D00F92CDB7CA
:1020E000DEB78A836B8319828B81882311F48A81FE
:1020F00089838B81813019F48A81805C898389810D
:1021000080580E947B0D0F900F900F90CF91DF9120
:102110000895DF93CF9300D000D00F92CDB7DEB7F4
:102120009C838B836D831A828D81882F90E0880F2A
:10213000991F880F991F880F991F8A838A81805C55
:102140000E947B0D19820EC08981282F30E08B817F
:102150009C81FC01E20FF31F80810E94860E898121
:102160008F5F89838981883078F30F900F900F906B
:102170000F900F90CF91DF910895DF93CF9300D010
:1021800000D0CDB7DEB78A836B834C8319828A81F6
:10219000882F90E0880F991F880F991F880F991F2B
:1021A00089838981805C0E947B0D8B816C810E9478
:1021B0006B108A810E94860E0F900F900F900F90E7
:1021C000CF91DF910895DF93CF93CDB7DEB781E054
:1021D00064E041E00E947009CF91DF910895DF93A0
:1021E000CF93CDB7DEB781E064E040E00E94700994
:1021F000CF91DF910895DF93CF93CDB7DEB760978E
:102200000FB6F894DEBF0FBECDBF988B8F870E94AC
:10221000E3108F859889CC01A0E0B0E0BC01CD012E
:102220000E945B04DC01CB018B879C87AD87BE8756
:102230006B857C858D859E8520E030E04AEF54E4F7
:102240000E941F02DC01CB018F839887A987BA8780
:102250006F81788589859A8520E030E040E85FE3EA
:102260000E94790388232CF481E090E09E838D8383
:102270003FC06F81788589859A8520E03FEF4FE7E1
:1022800057E40E94190318164CF56B857C858D85E3
:102290009E8520E030E040E251E40E941F02DC0114
:1022A000CB01BC01CD010E944900DC01CB019E8322
:1022B0008D830FC088EC90E09C838B838B819C8105
:1022C0000197F1F79C838B838D819E8101979E837B
:1022D0008D838D819E81009769F714C06F81788509
:1022E00089859A850E944900DC01CB019E838D83FC
:1022F0008D819E819A83898389819A810197F1F7E3
:102300009A8389830E94EF1060960FB6F894DEBF1F
:102310000FBECDBFCF91DF9108950F931F93DF9331
:10232000CF93CDB7DEB7CA53D1400FB6F894DEBF16
:102330000FBECDBFEAE3F0E083E08083E7E3F0E0A7
:102340008FEF8083E4E3F0E08FEF8083E1E3F0E060
:1023500082EF808383E062E041E00E94700983E0C5
:1023600063E041E00E9470090E94910F0E94C9063B
:102370000E946C0C0E9489070E94C1070E940D08F0
:10238000FE01E65CFE4F81E080835DC480E690E064
:102390000E941F1080E061E00E946B108BE690E0CD
:1023A0000E941F10FE01EF5CFE4F80E090E8ABE35F
:1023B000B5E480839183A283B3838E01035D1E4FB6
:1023C000FE01EF5CFE4F608171818281938120E08C
:1023D00030E04AEF54E40E941F02DC01CB01F80117
:1023E00080839183A283B383FE01E35DFE4F60810E
:1023F00071818281938120E030E040E85FE30E94B8
:102400007903882344F4FE01E55DFE4F81E090E00E
:102410009183808364C0FE01E35DFE4F6081718122
:102420008281938120E03FEF4FE757E40E94190338
:1024300018160CF043C0FE01EF5CFE4F6081718105
:102440008281938120E030E040E251E40E941F024B
:10245000DC01CB018E01055D1E4FBC01CD010E9448
:102460004900DC01CB01F801918380831FC0FE018C
:10247000E75DFE4F88EC90E091838083FE01E75D8D
:10248000FE4F808191810197F1F7FE01E75DFE4FDC
:1024900091838083DE01A55DBE4FFE01E55DFE4FA9
:1024A00080819181019711969C938E93FE01E55D49
:1024B000FE4F808191810097D1F627C08E01055D86
:1024C0001E4FFE01E35DFE4F608171818281938129
:1024D0000E944900DC01CB01F80191838083DE0179
:1024E000A95DBE4FFE01E55DFE4F808191818D9318
:1024F0009C93FE01E95DFE4F808191810197F1F788
:10250000FE01E95DFE4F9183808381E00E947B0D97
:1025100084E790E00E941F1087ED92E00E94C023A4
:10252000FE01E75CFE4F1082E5C0FE01E75CFE4F56
:102530008081882F90E0880F991F9C01220F331F04
:10254000220F331F820F931F9C012C593D4F87EDA3
:1025500092E0B9010E94C824009709F0C2C081E04E
:102560000E947B0D8EE790E00E941F10FE01E75C49
:10257000FE4F80818093C802FE01ED5DFE4F80E03A
:1025800090E8ABE3B5E480839183A283B3838E01AB
:10259000015E1E4FFE01ED5DFE4F60817181828103
:1025A000938120E030E04AEF54E40E941F02DC01F6
:1025B000CB01F80180839183A283B383FE01E15EA6
:1025C000FE4F608171818281938120E030E040E89C
:1025D0005FE30E947903882344F4FE01E35EFE4F2B
:1025E00081E090E09183808364C0FE01E15EFE4F54
:1025F000608171818281938120E03FEF4FE757E452
:102600000E94190318160CF043C0FE01ED5DFE4F49
:10261000608171818281938120E030E040E251E469
:102620000E941F02DC01CB018E01035E1E4FBC0124
:10263000CD010E944900DC01CB01F8019183808328
:102640001FC0FE01E55EFE4F88EC90E09183808321
:10265000FE01E55EFE4F808191810197F1F7FE0159
:10266000E55EFE4F91838083DE01A35EBE4FFE01D7
:10267000E35EFE4F80819181019711969C938E932A
:10268000FE01E35EFE4F808191810097D1F639C053
:102690008E01035E1E4FFE01E15EFE4F608171817F
:1026A000828193810E944900DC01CB01F801918372
:1026B0008083DE01A75EBE4FFE01E35EFE4F808198
:1026C000918111969C938E93FE01E75EFE4F80816F
:1026D00091810197F1F7FE01E75EFE4F91838083C0
:1026E00010C0DE01A75CBE4FFE01E75CFE4F80819B
:1026F0008F5F8C93FE01E75CFE4F80818A3008F487
:1027000014CF8091C8028A3008F4A4C28091C80214
:102710008A3008F4D8C0FE01E65CFE4F8081833029
:1027200008F0D1C081E00E947B0D81E890E00E941A
:102730001F1080E061E00E946B10FE01E65CFE4F1E
:102740008081282F30E083E090E0821B930B0E9471
:10275000481080E990E00E941F10FE01EB5EFE4FE2
:1027600080E090E4ACE9B5E480839183A283B383F5
:102770008E010F5E1E4FFE01EB5EFE4F6081718188
:102780008281938120E030E04AEF54E40E941F02EE
:10279000DC01CB01F80180839183A283B383FE0126
:1027A000EF5EFE4F608171818281938120E030E095
:1027B00040E85FE30E947903882344F4FE01E15F6F
:1027C000FE4F81E090E09183808364C0FE01EF5E64
:1027D000FE4F608171818281938120E03FEF4FE75E
:1027E00057E40E94190318160CF043C0FE01EB5E7B
:1027F000FE4F608171818281938120E030E040E270
:1028000051E40E941F02DC01CB018E01015F1E4FCB
:10281000BC01CD010E944900DC01CB01F80191838C
:1028200080831FC0FE01E35FFE4F88EC90E0918340
:102830008083FE01E35FFE4F808191810197F1F774
:10284000FE01E35FFE4F91838083DE01A15FBE4FF7
:10285000FE01E15FFE4F80819181019711969C936B
:102860008E93FE01E15FFE4F808191810097D1F64A
:1028700027C08E01015F1E4FFE01EF5EFE4F60819B
:102880007181828193810E944900DC01CB01F801B2
:1028900091838083DE01A55FBE4FFE01E15FFE4FA5
:1028A000808191818D939C93FE01E55FFE4F808135
:1028B00091810197F1F7FE01E55FFE4F91838083DF
:1028C00081E00E947B0DFE01E65CFE4F808183303B
:1028D00009F0B0C18091C8028A3008F4ABC181E030
:1028E0000E947B0D81E890E00E941F1080E061E073
:1028F0000E946B108DE990E00E941F10FE01E95FBD
:10290000FE4F80E090E4ACE9B5E480839183A2833C
:10291000B3838E010D5F1E4FFE01E95FFE4F6081A4
:1029200071818281938120E030E04AEF54E40E947B
:102930001F02DC01CB01F80180839183A283B38362
:10294000FE01ED5FFE4F608171818281938120E005
:1029500030E040E85FE30E947903882344F4FE01FD
:10296000EF5FFE4F81E090E09183808364C0FE01C1
:10297000ED5FFE4F608171818281938120E03FEFA6
:102980004FE757E40E94190318160CF043C0FE01EC
:10299000E95FFE4F608171818281938120E030E0A8
:1029A00040E251E40E941F02DC01CB018E010F5F67
:1029B0001E4FBC01CD010E944900DC01CB01F80192
:1029C000918380831FC0FE01E150FF4F88EC90E0AF
:1029D00091838083FE01E150FF4F808191810197B7
:1029E000F1F7FE01E150FF4F91838083DE01AF5F7D
:1029F000BE4FFE01EF5FFE4F8081918101971196DE
:102A00009C938E93FE01EF5FFE4F80819181009732
:102A1000D1F627C08E010F5F1E4FFE01ED5FFE4F06
:102A200060817181828193810E944900DC01CB0128
:102A3000F80191838083DE01A350BF4FFE01EF5F59
:102A4000FE4F808191818D939C93FE01E350FF4F57
:102A5000808191810197F1F7FE01E350FF4F91834F
:102A6000808381E00E947B0DFE01E85CFE4F1082B6
:102A7000DAC081E00E947B0D8CEA90E00E941F107A
:102A800080E061E00E946B10FE01E85CFE4F8081F7
:102A9000282F30E08AE090E0821B930B0E944810C0
:102AA0008CEB90E00E941F10FE01E750FF4F80E08A
:102AB00090E0AAE7B4E480839183A283B3838E017C
:102AC0000B501F4FFE01E750FF4F608171818281E3
:102AD000938120E030E04AEF54E40E941F02DC01C1
:102AE000CB01F80180839183A283B383FE01EB5075
:102AF000FF4F608171818281938120E030E040E866
:102B00005FE30E947903882344F4FE01ED50FF4FF8
:102B100081E090E09183808364C0FE01EB50FF4F21
:102B2000608171818281938120E03FEF4FE757E41C
:102B30000E94190318160CF043C0FE01E750FF4F26
:102B4000608171818281938120E030E040E251E434
:102B50000E941F02DC01CB018E010D501F4FBC01F2
:102B6000CD010E944900DC01CB01F80191838083F3
:102B70001FC0FE01EF50FF4F88EC90E091838083EF
:102B8000FE01EF50FF4F808191810197F1F7FE0127
:102B9000EF50FF4F91838083DE01AD50BF4FFE01A8
:102BA000ED50FF4F80819181019711969C938E93F8
:102BB000FE01ED50FF4F808191810097D1F627C033
:102BC0008E010D501F4FFE01EB50FF4F6081718150
:102BD000828193810E944900DC01CB01F80191833D
:102BE0008083DE01A151BF4FFE01ED50FF4F808178
:102BF00091818D939C93FE01E151FF4F80819181E2
:102C00000197F1F7FE01E151FF4F9183808381E04D
:102C10000E947B0DDE01A85CBE4FFE01E85CFE4F0A
:102C200080818F5F8C93FE01E85CFE4F80818A304B
:102C300008F41FCFDE01A65CBE4FFE01E65CFE4F2E
:102C400080818F5F8C93FE01E65CFE4F8081843033
:102C500008F49CCBFE01E551FF4F80E090E0AAE72D
:102C6000B4E480839183A283B3838E0109511F4F03
:102C7000FE01E551FF4F608171818281938120E0E7
:102C800030E04AEF54E40E941F02DC01CB01F8015E
:102C900080839183A283B383FE01E951FF4F60815A
:102CA00071818281938120E030E040E85FE30E94FF
:102CB0007903882344F4FE01EB51FF4F81E090E05B
:102CC0009183808364C0FE01E951FF4F608171816F
:102CD0008281938120E03FEF4FE757E40E94190380
:102CE00018160CF043C0FE01E551FF4F6081718161
:102CF0008281938120E030E040E251E40E941F0293
:102D0000DC01CB018E010B511F4FBC01CD010E9494
:102D10004900DC01CB01F801918380831FC0FE01D3
:102D2000ED51FF4F88EC90E091838083FE01ED51DF
:102D3000FF4F808191810197F1F7FE01ED51FF4F27
:102D400091838083DE01AB51BF4FFE01EB51FF4FFA
:102D500080819181019711969C938E93FE01EB5196
:102D6000FF4F808191810097D1F627C08E010B51D2
:102D70001F4FFE01E951FF4F608171818281938174
:102D80000E944900DC01CB01F80191838083DE01C0
:102D9000AF51BF4FFE01EB51FF4F808191818D9369
:102DA0009C93FE01EF51FF4F808191810197F1F7D4
:102DB000FE01EF51FF4F9183808381E00E947B0DE4
:102DC000FE01E95CFE4F81E080835EC480E690E016
:102DD0000E941F1080E061E00E946B1085EC90E083
:102DE0000E941F10FE01E352FF4F80E090E8ABE32A
:102DF000B5E480839183A283B3838E0107521F4F72
:102E0000FE01E352FF4F608171818281938120E056
:102E100030E04AEF54E40E941F02DC01CB01F801CC
:102E200080839183A283B383FE01E752FF4F6081C9
:102E300071818281938120E030E040E85FE30E946D
:102E40007903882344F4FE01E952FF4F81E090E0CA
:102E50009183808364C0FE01E752FF4F60817181DE
:102E60008281938120E03FEF4FE757E40E941903EE
:102E700018160CF043C0FE01E352FF4F60817181D0
:102E80008281938120E030E040E251E40E941F0201
:102E9000DC01CB018E0109521F4FBC01CD010E9404
:102EA0004900DC01CB01F801918380831FC0FE0142
:102EB000EB52FF4F88EC90E091838083FE01EB5250
:102EC000FF4F808191810197F1F7FE01EB52FF4F97
:102ED00091838083DE01A952BF4FFE01E952FF4F6B
:102EE00080819181019711969C938E93FE01E95206
:102EF000FF4F808191810097D1F627C08E01095242
:102F00001F4FFE01E752FF4F6081718182819381E3
:102F10000E944900DC01CB01F80191838083DE012E
:102F2000AD52BF4FFE01E952FF4F808191818D93D9
:102F30009C93FE01ED52FF4F808191810197F1F743
:102F4000FE01ED52FF4F9183808381E00E947B0D53
:102F50008EEC90E00E941F1082ED92E00E94C02350
:102F6000FE01EA5CFE4F1082E6C0FE01EA5CFE4F05
:102F70008081882F90E0880F991F9C01220F331FBA
:102F8000220F331F820F931F05969C012C593D4F32
:102F900082ED92E0B9010E94C824009709F0C2C0F6
:102FA00081E00E947B0D8EE790E00E941F10FE01E1
:102FB000EA5CFE4F80818093C902FE01E153FF4F1E
:102FC00080E090E8ABE3B5E480839183A283B38390
:102FD0008E0105531F4FFE01E153FF4F6081718148
:102FE0008281938120E030E04AEF54E40E941F0286
:102FF000DC01CB01F80180839183A283B383FE01BE
:10300000E553FF4F608171818281938120E030E040
:1030100040E85FE30E947903882344F4FE01E7530C
:10302000FF4F81E090E09183808364C0FE01E5530F
:10303000FF4F608171818281938120E03FEF4FE7F4
:1030400057E40E94190318160CF043C0FE01E15327
:10305000FF4F608171818281938120E030E040E206
:1030600051E40E941F02DC01CB018E0107531F4F68
:10307000BC01CD010E944900DC01CB01F801918324
:1030800080831FC0FE01E953FF4F88EC90E09183DD
:103090008083FE01E953FF4F808191810197F1F711
:1030A000FE01E953FF4F91838083DE01A753BF4F99
:1030B000FE01E753FF4F80819181019711969C9308
:1030C0008E93FE01E753FF4F808191810097D1F6E7
:1030D00039C08E0107531F4FFE01E553FF4F60813A
:1030E0007181828193810E944900DC01CB01F8014A
:1030F00091838083DE01AB53BF4FFE01E753FF4F47
:103100008081918111969C938E93FE01EB53FF4F2A
:10311000808191810197F1F7FE01EB53FF4F91837D
:10312000808310C0DE01AA5CBE4FFE01EA5CFE4F48
:1031300080818F5F8C93FE01EA5CFE4F80818A3034
:1031400008F413CF8091C9028A3008F4A4C2809198
:10315000C9028A3008F4D8C0FE01E95CFE4F8081C4
:10316000833008F0D1C081E00E947B0D88ED90E0B3
:103170000E941F1080E061E00E946B10FE01E95C7C
:10318000FE4F8081282F30E083E090E0821B930B7C
:103190000E94481080E990E00E941F10FE01EF534A
:1031A000FF4F80E090E4ACE9B5E480839183A28393
:1031B000B3838E0103541F4FFE01EF53FF4F608115
:1031C00071818281938120E030E04AEF54E40E94D3
:1031D0001F02DC01CB01F80180839183A283B383BA
:1031E000FE01E354FF4F608171818281938120E071
:1031F00030E040E85FE30E947903882344F4FE0155
:10320000E554FF4F81E090E09183808364C0FE012C
:10321000E354FF4F608171818281938120E03FEF11
:103220004FE757E40E94190318160CF043C0FE0143
:10323000EF53FF4F608171818281938120E030E004
:1032400040E251E40E941F02DC01CB018E010554D3
:103250001F4FBC01CD010E944900DC01CB01F801E8
:10326000918380831FC0FE01E754FF4F88EC90E0FC
:1032700091838083FE01E754FF4F80819181019704
:10328000F1F7FE01E754FF4F91838083DE01A554DF
:10329000BF4FFE01E554FF4F808191810197119648
:1032A0009C938E93FE01E554FF4F8081918100979E
:1032B000D1F627C08E0105541F4FFE01E354FF4F86
:1032C00060817181828193810E944900DC01CB0180
:1032D000F80191838083DE01A954BF4FFE01E554BC
:1032E000FF4F808191818D939C93FE01E954FF4FA4
:1032F000808191810197F1F7FE01E954FF4F91839D
:10330000808381E00E947B0DFE01E95CFE4F80819D
:10331000833009F0B0C18091C9028A3008F4ABC192
:1033200081E00E947B0D88ED90E00E941F1080E0FC
:1033300061E00E946B108DE990E00E941F10FE0179
:10334000ED54FF4F80E090E4ACE9B5E480839183D5
:10335000A283B3838E0101551F4FFE01ED54FF4F31
:10336000608171818281938120E030E04AEF54E4F2
:103370000E941F02DC01CB01F80180839183A283AC
:10338000B383FE01E155FF4F60817181828193819A
:1033900020E030E040E85FE30E947903882344F4B2
:1033A000FE01E355FF4F81E090E09183808364C08C
:1033B000FE01E155FF4F608171818281938120E0A0
:1033C0003FEF4FE757E40E94190318160CF043C073
:1033D000FE01ED54FF4F608171818281938120E075
:1033E00030E040E251E40E941F02DC01CB018E017B
:1033F00003551F4FBC01CD010E944900DC01CB01E8
:10340000F801918380831FC0FE01E555FF4F88ECD2
:1034100090E091838083FE01E555FF4F808191818B
:103420000197F1F7FE01E555FF4F91838083DE019F
:10343000A355BF4FFE01E355FF4F80819181019756
:1034400011969C938E93FE01E355FF4F80819181ED
:103450000097D1F627C08E0103551F4FFE01E1559D
:10346000FF4F60817181828193810E944900DC015C
:10347000CB01F80191838083DE01A755BF4FFE0188
:10348000E355FF4F808191818D939C93FE01E75519
:10349000FF4F808191810197F1F7FE01E755FF4FC2
:1034A0009183808381E00E947B0DFE01EB5CFE4FE7
:1034B0001082DAC081E00E947B0D8CEA90E00E94CD
:1034C0001F1080E061E00E946B10FE01EB5CFE4F7C
:1034D0008081282F30E08AE090E0821B930B0E94CD
:1034E00048108CEB90E00E941F10FE01EB55FF4F3F
:1034F00080E090E0AAE7B4E480839183A283B38361
:103500008E010F551F4FFE01EB55FF4F60817181FA
:103510008281938120E030E04AEF54E40E941F0250
:10352000DC01CB01F80180839183A283B383FE0188
:10353000EF55FF4F608171818281938120E030E0FF
:1035400040E85FE30E947903882344F4FE01E156DA
:10355000FF4F81E090E09183808364C0FE01EF55CE
:10356000FF4F608171818281938120E03FEF4FE7BF
:1035700057E40E94190318160CF043C0FE01EB55E6
:10358000FF4F608171818281938120E030E040E2D1
:1035900051E40E941F02DC01CB018E0101561F4F36
:1035A000BC01CD010E944900DC01CB01F8019183EF
:1035B00080831FC0FE01E356FF4F88EC90E09183AB
:1035C0008083FE01E356FF4F808191810197F1F7DF
:1035D000FE01E356FF4F91838083DE01A156BF4F6A
:1035E000FE01E156FF4F80819181019711969C93D6
:1035F0008E93FE01E156FF4F808191810097D1F6B5
:1036000027C08E0101561F4FFE01EF55FF4F60810D
:103610007181828193810E944900DC01CB01F80114
:1036200091838083DE01A556BF4FFE01E156FF4F17
:10363000808191818D939C93FE01E556FF4F80819F
:1036400091810197F1F7FE01E556FF4F9183808349
:1036500081E00E947B0DDE01AB5CBE4FFE01EB5CA6
:10366000FE4F80818F5F8C93FE01EB5CFE4F80816B
:103670008A3008F41FCFDE01A95CBE4FFE01E95C71
:10368000FE4F80818F5F8C93FE01E95CFE4F80814D
:10369000843008F49BCBFE01E956FF4F80E090E0B8
:1036A000AAE7B4E480839183A283B3838E010D568D
:1036B0001F4FFE01E956FF4F608171818281938126
:1036C00020E030E04AEF54E40E941F02DC01CB010D
:1036D000F80180839183A283B383FE01ED56FF4FEF
:1036E000608171818281938120E030E040E85FE376
:1036F0000E947903882344F4FE01EF56FF4F81E0D6
:1037000090E09183808364C0FE01ED56FF4F60819D
:1037100071818281938120E03FEF4FE757E40E945F
:10372000190318160CF043C0FE01E956FF4F6081E3
:1037300071818281938120E030E040E251E40E9477
:103740001F02DC01CB018E010F561F4FBC01CD01C2
:103750000E944900DC01CB01F801918380831FC0E6
:10376000FE01E157FF4F88EC90E091838083FE01DA
:10377000E157FF4F808191810197F1F7FE01E157F9
:10378000FF4F91838083DE01AF56BF4FFE01EF569E
:10379000FF4F80819181019711969C938E93FE013A
:1037A000EF56FF4F808191810097D1F627C08E019F
:1037B0000F561F4FFE01ED56FF4F608171818281D0
:1037C00093810E944900DC01CB01F8019183808341
:1037D000DE01A357BF4FFE01EF56FF4F808191815D
:1037E0008D939C93FE01E357FF4F80819181019758
:1037F000F1F7FE01E357FF4F9183808381E00E9440
:103800007B0D82E00E94A40CCC01A0E0B0E024EF8C
:1038100031E040E050E0BC01CD010E947224DC01A7
:10382000CB01CD01AA27BB279093CB028093CA027C
:1038300083E00E94A40CCC01A0E0B0E028E833E1D2
:1038400040E050E0BC01CD010E947224DC01CB01BC
:10385000CD01AA27BB279093CF028093CE0284E0AC
:103860000E94A40CCC01A0E0B0E028E833E140E0E5
:1038700050E0BC01CD010E947224DC01CB01CD01DE
:10388000AA27BB279093D1028093D00285E00E94A3
:10389000A40C9C0140E050E0DA01C901880F991F97
:1038A000AA1FBB1F880F991FAA1FBB1F820F931F40
:1038B000A41FB51FCD01AA27BB279093CD028093EB
:1038C000CC0280E090E00E940D240E94F9068093D3
:1038D000E1028091E1028D3209F0E7C3FE01E75772
:1038E000FF4F80E090E0A8ECB2E480839183A28354
:1038F000B3838E010B571F4FFE01E757FF4F6081C7
:1039000071818281938120E030E04AEF54E40E948B
:103910001F02DC01CB01F80180839183A283B38372
:10392000FE01EB57FF4F608171818281938120E01E
:1039300030E040E85FE30E947903882344F4FE010D
:10394000ED57FF4F81E090E09183808364C0FE01DA
:10395000EB57FF4F608171818281938120E03FEFBF
:103960004FE757E40E94190318160CF043C0FE01FC
:10397000E757FF4F608171818281938120E030E0C1
:1039800040E251E40E941F02DC01CB018E010D5781
:103990001F4FBC01CD010E944900DC01CB01F801A1
:1039A000918380831FC0FE01EF57FF4F88EC90E0AA
:1039B00091838083FE01EF57FF4F808191810197B2
:1039C000F1F7FE01EF57FF4F91838083DE01AD5782
:1039D000BF4FFE01ED57FF4F8081918101971196F6
:1039E0009C938E93FE01ED57FF4F8081918100974C
:1039F000D1F627C08E010D571F4FFE01EB57FF4F29
:103A000060817181828193810E944900DC01CB0138
:103A1000F80191838083DE01A158BF4FFE01ED576D
:103A2000FF4F808191818D939C93FE01E158FF4F60
:103A3000808191810197F1F7FE01E158FF4F918359
:103A4000808381E00E947B0D87EE90E00E941F1032
:103A500080E061E00E946B1080EF90E00E941F10F8
:103A6000FE01E558FF4F80E090E0AAE7B4E48083D0
:103A70009183A283B3838E0109581F4FFE01E5583D
:103A8000FF4F608171818281938120E030E04AEFB5
:103A900054E40E941F02DC01CB01F8018083918372
:103AA000A283B383FE01E958FF4F60817181828157
:103AB000938120E030E040E85FE30E9479038823AF
:103AC00044F4FE01EB58FF4F81E090E09183808346
:103AD00064C0FE01E958FF4F60817181828193814A
:103AE00020E03FEF4FE757E40E94190318160CF04F
:103AF00043C0FE01E558FF4F60817181828193814F
:103B000020E030E040E251E40E941F02DC01CB01E2
:103B10008E010B581F4FBC01CD010E944900DC01F2
:103B2000CB01F801918380831FC0FE01ED58FF4F48
:103B300088EC90E091838083FE01ED58FF4F8081F7
:103B400091810197F1F7FE01ED58FF4F918380833A
:103B5000DE01AB58BF4FFE01EB58FF4F80819181D2
:103B6000019711969C938E93FE01EB58FF4F808135
:103B700091810097D1F627C08E010B581F4FFE018F
:103B8000E958FF4F60817181828193810E944900D1
:103B9000DC01CB01F80191838083DE01AF58BF4F78
:103BA000FE01EB58FF4F808191818D939C93FE0124
:103BB000EF58FF4F808191810197F1F7FE01EF5897
:103BC000FF4F9183808381E00E947B0D84EF90E022
:103BD0000E941F108CED92E00E94C02381E00E94A1
:103BE0007B0D8CED92E025E532E0B9010E94C824FE
:103BF000009709F0C6C08DEF90E00E941F1080E092
:103C000061E00E946B1085E091E00E941F1086EA3F
:103C10009FEF0E940D24FE01E359FF4F80E090E0EA
:103C2000AAE7B4E480839183A283B3838E0107590A
:103C30001F4FFE01E359FF4F6081718182819381A3
:103C400020E030E04AEF54E40E941F02DC01CB0187
:103C5000F80180839183A283B383FE01E759FF4F6C
:103C6000608171818281938120E030E040E85FE3F0
:103C70000E947903882344F4FE01E959FF4F81E053
:103C800090E09183808364C0FE01E759FF4F60811B
:103C900071818281938120E03FEF4FE757E40E94DA
:103CA000190318160CF043C0FE01E359FF4F608161
:103CB00071818281938120E030E040E251E40E94F2
:103CC0001F02DC01CB018E0109591F4FBC01CD0140
:103CD0000E944900DC01CB01F801918380831FC061
:103CE000FE01EB59FF4F88EC90E091838083FE0149
:103CF000EB59FF4F808191810197F1F7FE01EB595C
:103D0000FF4F91838083DE01A959BF4FFE01E9591E
:103D1000FF4F80819181019711969C938E93FE01B4
:103D2000E959FF4F808191810097D1F627C08E011C
:103D300009591F4FFE01E759FF4F60817181828150
:103D400093810E944900DC01CB01F80191838083BB
:103D5000DE01AD59BF4FFE01E959FF4F80819181CE
:103D60008D939C93FE01ED59FF4F808191810197C6
:103D7000F1F7FE01ED59FF4F9183808381E00E94AE
:103D80007B0D8CED92E02AE532E0B9010E94C82457
:103D9000009709F0C6C081E191E00E941F1080E009
:103DA00061E00E946B1085E091E00E941F1080E0AE
:103DB00090E00E940D24FE01E15AFF4F80E090E068
:103DC000AAE7B4E480839183A283B3838E01055A6A
:103DD0001F4FFE01E15AFF4F608171818281938103
:103DE00020E030E04AEF54E40E941F02DC01CB01E6
:103DF000F80180839183A283B383FE01E55AFF4FCC
:103E0000608171818281938120E030E040E85FE34E
:103E10000E947903882344F4FE01E75AFF4F81E0B2
:103E200090E09183808364C0FE01E55AFF4F60817A
:103E300071818281938120E03FEF4FE757E40E9438
:103E4000190318160CF043C0FE01E15AFF4F6081C0
:103E500071818281938120E030E040E251E40E9450
:103E60001F02DC01CB018E01075A1F4FBC01CD019F
:103E70000E944900DC01CB01F801918380831FC0BF
:103E8000FE01E95AFF4F88EC90E091838083FE01A8
:103E9000E95AFF4F808191810197F1F7FE01E95ABC
:103EA000FF4F91838083DE01A75ABF4FFE01E75A7F
:103EB000FF4F80819181019711969C938E93FE0113
:103EC000E75AFF4F808191810097D1F627C08E017C
:103ED000075A1F4FFE01E55AFF4F608171818281B1
:103EE00093810E944900DC01CB01F801918380831A
:103EF000DE01AB5ABF4FFE01E75AFF4F808191812F
:103F00008D939C93FE01EB5AFF4F80819181019725
:103F1000F1F7FE01EB5AFF4F9183808381E00E940D
:103F20007B0D8CED92E02FE532E0B9010E94C824B0
:103F3000009709F0BAC089E191E00E941F10FE01CC
:103F4000EF5AFF4F80E090E0AAE7B4E480839183CA
:103F5000A283B3838E01035B1F4FFE01EF5AFF4F15
:103F6000608171818281938120E030E04AEF54E4E6
:103F70000E941F02DC01CB01F80180839183A283A0
:103F8000B383FE01E35BFF4F608171818281938186
:103F900020E030E040E85FE30E947903882344F4A6
:103FA000FE01E55BFF4F81E090E09183808364C078
:103FB000FE01E35BFF4F608171818281938120E08C
:103FC0003FEF4FE757E40E94190318160CF043C067
:103FD000FE01EF5AFF4F608171818281938120E061
:103FE00030E040E251E40E941F02DC01CB018E016F
:103FF000055B1F4FBC01CD010E944900DC01CB01D4
:10400000F801918380831FC0FE01E75BFF4F88ECBE
:1040100090E091838083FE01E75BFF4F8081918177
:104020000197F1F7FE01E75BFF4F91838083DE018B
:10403000A55BBF4FFE01E55BFF4F8081918101973A
:1040400011969C938E93FE01E55BFF4F80819181D9
:104050000097D1F627C08E01055B1F4FFE01E35B81
:10406000FF4F60817181828193810E944900DC0150
:10407000CB01F80191838083DE01A95BBF4FFE0174
:10408000E55BFF4F808191818D939C93FE01E95BFD
:10409000FF4F808191810197F1F7FE01E95BFF4FAE
:1040A0009183808381E00E947B0D8091CA02909170
:1040B000CB028E32910520F088EE93E00E94FB1037
:1040C0008091CE029091CF02F1E080399F0728F4D1
:1040D00081E065E041E00E9470098091CE029091FC
:1040E000CF0221E08039920728F081E065E040E0CE
:1040F0000E947009FE01ED5BFF4F80E090E0A0E8B8
:10410000BFE380839183A283B3838E01015C1F4F41
:10411000FE01ED5BFF4F608171818281938120E020
:1041200030E04AEF54E40E941F02DC01CB01F801A9
:1041300080839183A283B383FE01FF9660817181A6
:104140008281938120E030E040E85FE30E947903C0
:1041500088232CF481E090E09EAF8DAF46C0FE0135
:10416000FF96608171818281938120E03FEF4FE76C
:1041700057E40E941903181664F5FE01ED5BFF4F2A
:10418000608171818281938120E030E040E251E4DE
:104190000E941F02DC01CB01BC01CD010E9449003D
:1041A000DC01CB019EAF8DAF0FC088EC90E09CAFDF
:1041B0008BAF8BAD9CAD0197F1F79CAF8BAF8DAD05
:1041C0009EAD01979EAF8DAF8DAD9EAD009769F707
:1041D00016C0FE01FF9660817181828193810E94E9
:1041E0004900DC01CB019EAF8DAF8DAD9EAD9AAF86
:1041F00089AF89AD9AAD0197F1F79AAF89AF8091F8
:10420000CA029091CB028031910558F08091CA0288
:104210009091CB028431910520F4E3E4F0E082E355
:1042200080838091CA029091CB028431910558F429
:104230008091CA029091CB028031910520F0E3E495
:10424000F0E084E680838091CA029091CB028931AC
:10425000910558F48091CA029091CB028531910565
:1042600020F0E3E4F0E086E980838091CA02909137
:10427000CB028A31910520F0E3E4F0E08AEF8083FD
:104280000CE510E08091CC029091CD02CC01A0E031
:10429000B0E02CE330E040E050E0BC01CD010E94F2
:1042A0007224DC01CB01F801808387E291E00E9457
:1042B0001F108091CA029091CB020E94481080E0AA
:1042C00090E0AAE7B4E48DAB9EABAFABB8AF6DA9FD
:1042D0007EA98FA998AD20E030E04AEF54E40E9417
:1042E0001F02DC01CB0189AB9AABABABBCAB69A9BC
:1042F0007AA98BA99CA920E030E040E85FE30E9406
:10430000790388232CF481E090E098AB8FA73FC01D
:1043100069A97AA98BA99CA920E03FEF4FE757E450
:104320000E94190318164CF56DA97EA98FA998ADA6
:1043300020E030E040E251E40E941F02DC01CB01AA
:10434000BC01CD010E944900DC01CB0198AB8FA7D5
:104350000FC088EC90E09EA78DA78DA59EA5019724
:10436000F1F79EA78DA78FA598A9019798AB8FA766
:104370008FA598A9009769F714C069A97AA98BA994
:104380009CA90E944900DC01CB0198AB8FA78FA5A7
:1043900098A99CA78BA78BA59CA50197F1F79CA733
:1043A0008BA781E00E947B0D84E391E00E941F10A7
:1043B0008091CC029091CD020E94481080E090E064
:1043C000AAE7B4E48FA398A7A9A7BAA76FA178A575
:1043D00089A59AA520E030E04AEF54E40E941F022C
:1043E000DC01CB018BA39CA3ADA3BEA36BA17CA1DD
:1043F0008DA19EA120E030E040E85FE30E947903B8
:1044000088232CF481E090E09AA389A33FC06BA19C
:104410007CA18DA19EA120E03FEF4FE757E40E94D1
:10442000190318164CF56FA178A589A59AA520E067
:1044300030E040E251E40E941F02DC01CB01BC01EC
:10444000CD010E944900DC01CB019AA389A30FC0D2
:1044500088EC90E098A38F8F8F8D98A10197F1F74A
:1044600098A38F8F89A19AA101979AA389A389A163
:104470009AA1009769F714C06BA17CA18DA19EA1A0
:104480000E944900DC01CB019AA389A389A19AA1CA
:104490009E8F8D8F8D8D9E8D0197F1F79E8F8D8FC5
:1044A00081E00E947B0D8EE391E00E941F108091BD
:1044B000CE029091CF020E94481080E090E0AAE7DF
:1044C000B4E4898F9A8FAB8FBC8F698D7A8D8B8D79
:1044D0009C8D20E030E04AEF54E40E941F02DC0192
:1044E000CB018D8B9E8BAF8BB88F6D897E898F8929
:1044F000988D20E030E040E85FE30E947903882354
:104500002CF481E090E09C8B8B8B3FC06D897E8981
:104510008F89988D20E03FEF4FE757E40E94190301
:1045200018164CF5698D7A8D8B8D9C8D20E030E0CE
:1045300040E251E40E941F02DC01CB01BC01CD012D
:104540000E944900DC01CB019C8B8B8B0FC088EC57
:1045500090E09A8B898B89899A890197F1F79A8BD8
:10456000898B8B899C8901979C8B8B8B8B899C89F0
:10457000009769F714C06D897E898F89988D0E9494
:104580004900DC01CB019C8B8B8B8B899C89988BA0
:104590008F878F8598890197F1F7988B8F8781E0B6
:1045A0000E947B0D83E491E00E941F108091D00255
:1045B0009091D1020E94481080E090E0AAE7B4E414
:1045C0008B879C87AD87BE876B857C858D859E8517
:1045D00020E030E04AEF54E40E941F02DC01CB01EE
:1045E0008F839887A987BA876F81788589859A850F
:1045F00020E030E040E85FE30E94790388232CF458
:1046000081E090E09E838D833FC06F8178858985AE
:104610009A8520E03FEF4FE757E40E9419031816F0
:104620004CF56B857C858D859E8520E030E040E2F1
:1046300051E40E941F02DC01CB01BC01CD010E94AC
:104640004900DC01CB019E838D830FC088EC90E094
:104650009C838B838B819C810197F1F79C838B8357
:104660008D819E8101979E838D838D819E81009790
:1046700069F714C06F81788589859A850E94490001
:10468000DC01CB019E838D838D819E819A838983FA
:1046900089819A810197F1F79A83898381E00E9449
:1046A0007B0DAFC81F920F920FB60F9211242F935C
:1046B0003F934F935F936F937F938F939F93AF93AA
:1046C000BF93EF93FF93DF93CF93CDB7DEB781E036
:1046D00066E041E00E9470090E94E310CF91DF91F3
:1046E000FF91EF91BF91AF919F918F917F916F91CA
:1046F0005F914F913F912F910F900FBE0F901F90A0
:1047000018951F920F920FB60F9211242F933F937B
:104710004F935F936F937F938F939F93AF93BF93C9
:10472000EF93FF93DF93CF93CDB7DEB781E066E0E1
:1047300040E00E9470090E94EF10CF91DF91FF913D
:10474000EF91BF91AF919F918F917F916F915F9109
:104750004F913F912F910F900FBE0F901F90189582
:104760001F920F920FB60F921124DF93CF93CDB704
:10477000DEB7CF91DF910F900FBE0F901F9018956D
:10478000DF93CF9300D000D0CDB7DEB79C838B836F
:104790001A828FE28093E10235C00E94F90680936D
:1047A000E1028091E1028133B0F08091E1028B3728
:1047B00090F48091E1020E94860E8A81282F30E0D9
:1047C0008B819C81FC01E20FF31F8091E1028083C9
:1047D0008A818F5F8A838091E1028A3299F41982FB
:1047E0000EC08981282F30E08B819C81FC01E20F73
:1047F000F31F80810E94860E89818F5F8983898162
:10480000843078F38091E1028A3239F60F900F906C
:104810000F900F90CF91DF9108950F931F93DF9327
:10482000CF930F92CDB7DEB789838981863AC4F1E1
:1048300089818B35ACF50AE410E08981992787FDE1
:104840009095A92FB92FBC01CD010E94A903DC01CD
:10485000CB01BC01CD0120E030E044EB52E40E94EA
:10486000F201DC01CB01BC01CD012CE137EC41EBC5
:1048700050E40E941F02DC01CB01BC01CD0120E00D
:1048800030E04AE754E40E94F201DC01CB01BC01B4
:10489000CD010E944900DC01CB01F80191838083A6
:1048A000EAE4F0E080819181F7E0803D9F0731F4F8
:1048B000EAE4F0E08FEC97E091838083EAE4F0E0B3
:1048C000808191812FEF863A920731F4EAE4F0E09B
:1048D00089EE93E0918380830F90CF91DF911F91B8
:1048E0000F910895629FD001739FF001829FE00DA8
:1048F000F11D649FE00DF11D929FF00D839FF00D5F
:10490000749FF00D659FF00D9927729FB00DE11D0A
:10491000F91F639FB00DE11DF91FBD01CF011124E7
:1049200008952F923F924F925F926F927F928F9253
:104930009F92AF92BF92CF92DF92EF92FF920F932E
:104940001F93CF93DF93CDB7DEB7CA1BDB0B0FB638
:10495000F894DEBF0FBECDBF09942A8839884888F5
:104960005F846E847D848C849B84AA84B984C8848B
:10497000DF80EE80FD800C811B81AA81B981CE0F82
:10498000D11D0FB6F894DEBF0FBECDBFED01089567
:10499000FB01DC018D91019080190110D9F3990B75
:1049A0000895FB019F01E8944230C4F04532B4F40D
:1049B0004A3029F497FB1EF4909581959F4F642F00
:1049C00077270E940225805D8A330CF0895D8193F0
:1049D000CB010097A1F716F45DE251931082C90153
:1049E0000C94F224DC01FC01672F71917723E1F72D
:1049F000329704C07C916D9370836291AE17BF07AC
:104A0000C8F30895AA1BBB1B51E107C0AA1FBB1F17
:104A1000A617B70710F0A61BB70B881F991F5A954A
:104A2000A9F780959095BC01CD010895F894FFCF2A
:104A3000456E74657220796F757200557365726E7C
:104A4000616D6500557365726E616D653A004F4B1F
:104A50000057726F6E6720557365726E616D6500E9
:104A6000207472696573206C65667421004E6F2036
:104A70007472696573206C65667421005379737470
:104A8000656D2053687574646F776E00205365639D
:104A90006F6E64730050617373776F72640050615E
:104AA0007373776F72643A0057726F6E672050614C
:104AB0007373776F72640049276D204865726500D3
:104AC00053697200436F6D6D616E643A00436C6FA1
:104AD00073696E670074686520646F6F722E2E2E86
:104AE000004F70656E696E67004865617679206C6D
:104AF0006F6164204F4E0054656D7065726174750E
:104B000072653A005265736973746F723A004C446F
:104B1000523A00496E6672617265643A00000000A4
:104B20000000000000000102020303030304040468
:104B3000040404040405050505050505050505052A
:104B4000050505050506060606060606060606060A
:104B500006060606060606060606060606060606F5
:104B600006060606060707070707070707070707DA
:104B700007070707070707070707070707070707C5
:104B800007070707070707070707070707070707B5
:104B900007070707070707070707070707070707A5
:104BA000070707070708080808080808080808088A
:104BB0000808080808080808080808080808080875
:104BC0000808080808080808080808080808080865
:104BD0000808080808080808080808080808080855
:104BE0000808080808080808080808080808080845
:104BF0000808080808080808080808080808080835
:104C00000808080808080808080808080808080824
:104C10000808080808080808080808080808080814
:104C2000080808080853687574004F70656E004CDA
:104C30006430310041686D640039393931004D7399
:104C4000746600393931390049736C610039393182
:104C50003100596F7366003931393900416D69721D
:104C60000039313939004F6D617200393131390005
:104C700053616D6900393131310053616564003130
:104C800039393900416D61720031393931004D686F
:0A4C90006D640031393139006363AF
:00000001FF
