:100000000C942A000C943C000C943C000C943C0092
:100010000C943C000C943C000C943C000C943C0070
:100020000C943C000C943C000C943C000C941E017D
:100030000C943C000C943C000C943C000C943C0050
:100040000C943C000C943C000C943C000C943C0040
:100050000C943C0011241FBECFE5D8E0DEBFCDBF1D
:1000600010E0A0E6B0E001C01D92A037B107E1F7B3
:100070000E9469040C94D8040C940000DF93CF9381
:10008000CDB7DEB70E94CC000E9451018EE790E010
:100090000E940101CF91DF910895DF93CF9300D0AB
:1000A00000D00F92CDB7DEB79A8389836B835D83CF
:1000B0004C838B81882F90E0880F991F880F991FA0
:1000C000FC01EC59FF4F89819A81918380838B8158
:1000D000882F90E0880F991F0196880F991FFC01C7
:1000E000EC59FF4F8C819D81918380830F900F90FD
:1000F0000F900F900F90CF91DF910895DF93CF93E2
:100100000F92CDB7DEB780916000909161000196AB
:100110009093610080936000198237C04091600025
:10012000509161008981882F90E0880F991F880F76
:10013000991FFC01EC59FF4F20813181CA01B9019F
:100140000E94C4040097F1F48981882F90E0880F01
:10015000991F0196880F991FFC01EC59FF4F808170
:100160009181009779F08981882F90E0880F991FFD
:100170000196880F991FFC01EC59FF4F0190F08107
:10018000E02D099589818F5F89838981833030F2E1
:100190000F90CF91DF910895DF93CF93CDB7DEB766
:1001A000A3E5B0E0E3E5F0E080818F7B8C93A3E5ED
:1001B000B0E0E3E5F0E0808188608C93A3E5B0E0F7
:1001C000E3E5F0E0808181608C93A3E5B0E0E3E5B6
:1001D000F0E0808182608C93A3E5B0E0E3E5F0E09D
:1001E00080818B7F8C93ECE5F0E08DE78083A9E53F
:1001F000B0E0E9E5F0E0808181608C93CF91DF9100
:100200000895DF93CF9300D00F92CDB7DEB79B83D5
:100210008A8319828A819B81009739F08A819B8128
:10022000909363008093620002C081E0898389819A
:100230000F900F900F90CF91DF9108951F920F9222
:100240000FB60F9211242F933F934F935F936F93A9
:100250007F938F939F93AF93BF93EF93FF93DF931E
:10026000CF93CDB7DEB78091620090916300009785
:1002700029F0E0916200F09163000995CF91DF9140
:10028000FF91EF91BF91AF919F918F917F916F916E
:100290005F914F913F912F910F900FBE0F901F9044
:1002A0001895DF93CF93CDB7DEB7AFE5B0E0EFE5BC
:1002B000F0E0808180688C93CF91DF910895DF9387
:1002C000CF93CDB7DEB7AFE5B0E0EFE5F0E08081EA
:1002D0008F778C93CF91DF910895DF93CF93CDB734
:1002E000DEB727970FB6F894DEBF0FBECDBF898368
:1002F0006A834B838B81813009F06FC08981282FFD
:1003000030E03F832E838E819F818130910549F1BA
:100310002E813F81223031052CF48E819F81009700
:1003200061F0D2C02E813F812230310571F18E8182
:100330009F8183309105E9F1C7C0ABE3B0E0EBE307
:10034000F0E08081482F8A81282F30E081E090E022
:10035000022E02C0880F991F0A94E2F7842B8C9317
:10036000B3C0A8E3B0E0E8E3F0E08081482F8A81E1
:10037000282F30E081E090E0022E02C0880F991F04
:100380000A94E2F7842B8C939FC0A5E3B0E0E5E3E9
:10039000F0E08081482F8A81282F30E081E090E0D2
:1003A000022E02C0880F991F0A94E2F7842B8C93C7
:1003B0008BC0A2E3B0E0E2E3F0E08081482F8A81C5
:1003C000282F30E081E090E0022E02C0880F991FB4
:1003D0000A94E2F7842B8C9377C08B81882309F0F1
:1003E00073C08981282F30E03D832C838C819D81CF
:1003F0008130910559F12C813D81223031052CF459
:100400008C819D81009769F05FC02C813D812230F5
:10041000310589F18C819D818330910509F440C0BB
:1004200053C0ABE3B0E0EBE3F0E08081482F8A817A
:10043000282F30E081E090E0022E02C0880F991F43
:100440000A94E2F7809584238C933EC0A8E3B0E041
:10045000E8E3F0E08081482F8A81282F30E081E0B6
:1004600090E0022E02C0880F991F0A94E2F780954F
:1004700084238C9329C0A5E3B0E0E5E3F0E080811C
:10048000482F8A81282F30E081E090E0022E02C0C0
:10049000880F991F0A94E2F7809584238C9314C0E7
:1004A000A2E3B0E0E2E3F0E08081482F8A81282FC8
:1004B00030E081E090E0022E02C0880F991F0A947C
:1004C000E2F7809584238C9327960FB6F894DEBFCD
:1004D0000FBECDBFCF91DF910895DF93CF93CDB7FE
:1004E000DEB727970FB6F894DEBF0FBECDBF898366
:1004F0006A834B838B81813009F06FC08981282FFB
:1005000030E03F832E838E819F818130910549F1B8
:100510002E813F81223031052CF48E819F810097FE
:1005200061F0D2C02E813F812230310571F18E8180
:100530009F8183309105E9F1C7C0AAE3B0E0EAE307
:10054000F0E08081482F8A81282F30E081E090E020
:10055000022E02C0880F991F0A94E2F7842B8C9315
:10056000B3C0A7E3B0E0E7E3F0E08081482F8A81E1
:10057000282F30E081E090E0022E02C0880F991F02
:100580000A94E2F7842B8C939FC0A4E3B0E0E4E3E9
:10059000F0E08081482F8A81282F30E081E090E0D0
:1005A000022E02C0880F991F0A94E2F7842B8C93C5
:1005B0008BC0A1E3B0E0E1E3F0E08081482F8A81C5
:1005C000282F30E081E090E0022E02C0880F991FB2
:1005D0000A94E2F7842B8C9377C08B81882309F0EF
:1005E00073C08981282F30E03D832C838C819D81CD
:1005F0008130910559F12C813D81223031052CF457
:100600008C819D81009769F05FC02C813D812230F3
:10061000310589F18C819D818330910509F440C0B9
:1006200053C0AAE3B0E0EAE3F0E08081482F8A817A
:10063000282F30E081E090E0022E02C0880F991F41
:100640000A94E2F7809584238C933EC0A7E3B0E040
:10065000E7E3F0E08081482F8A81282F30E081E0B5
:1006600090E0022E02C0880F991F0A94E2F780954D
:1006700084238C9329C0A4E3B0E0E4E3F0E080811C
:10068000482F8A81282F30E081E090E0022E02C0BE
:10069000880F991F0A94E2F7809584238C9314C0E5
:1006A000A1E3B0E0E1E3F0E08081482F8A81282FC8
:1006B00030E081E090E0022E02C0880F991F0A947A
:1006C000E2F7809584238C9327960FB6F894DEBFCB
:1006D0000FBECDBFCF91DF910895DF93CF9300D0B0
:1006E00000D0CDB7DEB789836A838981282F30E0B7
:1006F0003C832B838B819C8181309105D1F02B81B0
:100700003C81223031052CF48B819C81009761F073
:100710001EC02B813C812230310581F08B819C8170
:100720008330910581F013C0EBE3F0E08A81808390
:100730000EC0E8E3F0E08A81808309C0E5E3F0E0E1
:100740008A81808304C0E2E3F0E08A8180830F9095
:100750000F900F900F90CF91DF910895DF93CF937B
:1007600000D000D0CDB7DEB789836A838981282F76
:1007700030E03C832B838B819C8181309105D1F0CB
:100780002B813C81223031052CF48B819C81009798
:1007900061F01EC02B813C812230310581F08B81BC
:1007A0009C818330910581F013C0EAE3F0E08A81F7
:1007B00080830EC0E7E3F0E08A81808309C0E4E330
:1007C000F0E08A81808304C0E1E3F0E08A818083E5
:1007D0000F900F900F900F90CF91DF910895DF93BE
:1007E000CF9300D000D00F92CDB7DEB78A836B8352
:1007F00019828A81282F30E03D832C834C815D81D2
:100800004130510541F18C819D818230910534F454
:100810002C813D812115310561F052C04C815D81F3
:100820004230510551F18C819D8183309105B9F1A0
:1008300047C0E9E3F0E08081282F30E08B81882FEA
:1008400090E0A90102C0559547958A95E2F7CA0143
:100850008170898335C0E6E3F0E08081282F30E0A5
:100860008B81882F90E0A90102C0559547958A9504
:10087000E2F7CA018170898323C0E3E3F0E080815D
:10088000282F30E08B81882F90E0A90102C0559578
:1008900047958A95E2F7CA018170898311C0E0E328
:1008A000F0E08081282F30E08B81882F90E0A90133
:1008B00002C0559547958A95E2F7CA0181708983F0
:1008C00089810F900F900F900F900F90CF91DF9133
:1008D0000895DF93CF93CDB7DEB70E943E0080E04E
:1008E00060E041E00E946D0280E061E041E00E9432
:1008F0006D0280E062E041E00E946D0227E934E091
:1009000088EE93E060E0A9010E944D0026EA34E001
:1009100080ED97E061E0A9010E944D0025EB34E0F5
:1009200088EB9BE062E0A9010E944D00FFCFDF93BE
:10093000CF93CDB7DEB7ABE3B0E0EBE3F0E090816F
:1009400081E089278C93CF91DF910895DF93CF9336
:10095000CDB7DEB7ABE3B0E0EBE3F0E0908182E04F
:1009600089278C93CF91DF910895DF93CF93CDB7F3
:10097000DEB7ABE3B0E0EBE3F0E0908184E0892701
:100980008C93CF91DF910895AA1BBB1B51E107C047
:10099000AA1FBB1FA617B70710F0A61BB70B881F0F
:1009A000991F5A95A9F780959095BC01CD0108959E
:0409B000F894FFCFE9
:00000001FF
