:100000000C942A000C9447000C9447000C94470071
:100010000C9447000C9447000C9447000C94470044
:100020000C9447000C9447000C9447000C94470034
:100030000C9447000C9447000C9447000C94470024
:100040000C9447000C9447000C9447000C94470014
:100050000C94470011241FBECFE5D8E0DEBFCDBF12
:1000600011E0A0E6B0E0E6E8FDE002C005900D92E8
:10007000AA35B107D9F711E0AAE5B1E001C01D9298
:10008000A136B107E1F70E947D030C94C1060C94E0
:100090000000529886E880BD83E389B9539A549A48
:1000A000579A569A08958BB18CB108959BB18CB92B
:1000B00008955F9A0895AC0120E004C08BB18CB123
:1000C00080832F5FFA01E20FF11D80818823B1F751
:1000D000089554980895549A089583B7806483BF0F
:1000E00083B7886083BF83B78F7E83BF83B7806207
:1000F00083BF83B78E7F83BF83B7826083BF83B79D
:100100008B7F83BF08958FB58E7F8FBD8FB5826043
:100110008FBD8EB588608EBD8EB580618EBD80E846
:100120009BE79DBD8CBD9BBD8ABD80E29EE497BDD3
:1001300086BD80ED97E09BBD8ABD89B7846089BF8D
:1001400089B7806189BF8FB58F7B8FBD8FB5806880
:100150008FBD8EB58E7F8EBD8EB582608EBD8EB505
:100160008B7F8EBD089585B5806485BD85B588601B
:1001700085BD85B58F7E85BD85B5806285BD85B51C
:100180008E7F85BD85B5826085BD85B58B7F85BD3C
:100190000895689A6998709A6C9A6E9A08956C9806
:1001A0006E9A08958FB98EB18FB108958FB7806818
:1001B0008FBF08958FB78F778FBF089585B78E7FD4
:1001C00085BF85B7826085BF8BB780648BBF08957C
:1001D00085B78B7F85BF85B7886085BF8BB7806803
:1001E0008BBF089584B78F7B84BF8BB780628BBF32
:1001F00008954130B1F5813099F0813030F082308E
:10020000D1F0833009F067C021C02BB381E090E0CA
:1002100002C0880F991F6A95E2F7282B2BBB08951F
:1002200028B381E090E002C0880F991F6A95E2F739
:10023000282B28BB089525B381E090E002C0880FE9
:10024000991F6A95E2F7282B25BB089522B381E018
:1002500090E002C0880F991F6A95E2F7282B22BB15
:1002600008954423C1F5813099F0813028F082301F
:10027000D9F0833081F524C02BB381E090E002C037
:10028000880F991F6A95E2F7809582238BBB0895AA
:1002900028B381E090E002C0880F991F6A95E2F7C9
:1002A0008095822388BB089525B381E090E002C049
:1002B000880F991F6A95E2F78095822385BB089580
:1002C00022B381E090E002C0880F991F6A95E2F79F
:1002D0008095822382BB08954130B1F5813099F039
:1002E000813030F08230D1F0833009F067C021C016
:1002F0002AB381E090E002C0880F991F6A95E2F767
:10030000282B2ABB089527B381E090E002C0880F14
:10031000991F6A95E2F7282B27BB089524B381E043
:1003200090E002C0880F991F6A95E2F7282B24BB42
:10033000089521B381E090E002C0880F991F6A956B
:10034000E2F7282B21BB08954423C1F5813099F0B1
:10035000813028F08230D9F0833081F524C02AB36F
:1003600081E090E002C0880F991F6A95E2F78095BE
:1003700082238ABB089527B381E090E002C0880FF2
:10038000991F6A95E2F78095822387BB089524B36D
:1003900081E090E002C0880F991F6A95E2F780958E
:1003A000822384BB089521B381E090E002C0880FCE
:1003B000991F6A95E2F78095822381BB0895813069
:1003C00049F0813028F0823039F0833041F406C0A2
:1003D0006BBB089568BB089565BB089562BB089523
:1003E000813049F0813028F0823039F0833041F497
:1003F00006C06ABB089567BB089564BB089561BBDE
:100400000895813051F0813030F0823041F08330F6
:1004100079F080E0089589B303C086B301C083B347
:1004200090E002C0959587956A95E2F781700895EE
:1004300080B390E002C0959587956A95E2F7817048
:1004400008953E9A3F983D98309A31983298379A5D
:10045000089597B1907E97B997B1982B97B9369A2E
:1004600080E090E001C0019626B126E8803A92072C
:10047000D1F7349A24B135B1C9010895CF92DF92F2
:10048000EF92FF920F931F93CF93DF93F82EC62E18
:10049000D42EE22E40E00E94F9008F2D6E2D40E018
:1004A0000E94F9008F2D6E2D41E00E94F900C0E0FE
:1004B000D0E0C8010C2E02C0969587950A94E2F709
:1004C00080FF04C08F2D6D2D41E003C08F2D6D2D59
:1004D00040E00E94F9008F2D6E2D40E00E94F9004F
:1004E0008F2D6E2D41E00E94F9002196C031D1057B
:1004F00001F78F2D6C2D41E00E94F900DF91CF9123
:100500001F910F91FF90EF90DF90CF9008950F9380
:100510001F93182F81E061E040E00E94F90081E024
:1005200060E041E00E94F90082E0612F0E94DF015B
:1005300081E062E041E00E94F90000EA1FE0C801AA
:100540000197F1F781E062E040E00E94F900C80104
:100550000197F1F71F910F9108951F93CF93DF93A8
:10056000EC0110E003C00E9487021F5FFE01E10F53
:10057000F11D80818823B9F7DF91CF911F910895F4
:100580000F931F93DF93CF93CDB7DEB72A970FB6A4
:10059000F894DEBF0FBECDBF8E010F5F1F4FB801B5
:1005A0004AE050E00E94B303C8010E94AD022A96BF
:1005B0000FB6F894DEBF0FBECDBFCF91DF911F9174
:1005C0000F9108950F931F93182F81E061E040E091
:1005D0000E94F90081E060E040E00E94F90082E0C2
:1005E000612F0E94DF0181E062E041E00E94F9009A
:1005F00000EA1FE0C8010197F1F781E062E040E006
:100600000E94F900C8010197F1F71F910F91089519
:100610000F931F93CF93DF938C01862F880F880F42
:10062000880F805C0E94E202C0E0D0E0F801EC0F8D
:10063000FD1F80810E9487022196C830D105B1F745
:10064000DF91CF911F910F910895662329F06130BA
:1006500011F080E001C0805C80580E94E2020895A1
:10066000FF920F931F93F82E162F042F880F880FD9
:10067000880F805C0E94E202812F602F0E94250378
:100680008F2D0E9487021F910F91FF90089580E99E
:1006900091E028EC30E0F9013197F1F70197D9F7B3
:1006A00088E30E94E2028CE00E94E20281E00E9464
:1006B000E202089500D000D000D0EDB7FEB7319629
:1006C00080E690E0ADB7BEB712969C938E931197DB
:1006D00081EE90E0938382838091F5009091F60003
:1006E000958384830E94D4038DB79EB706960FB678
:1006F000F8949EBF0FBE8DBF0895CF93DF9380E027
:1007000060E041E00E946C0183E060E040E00E9414
:100710006C0183E061E041E00E946C010E94D60020
:100720000E944900C8ECD0E00E94530080935A0117
:100730008136D1F780E060E041E00E94F90088E86E
:1007400093E1FE013197F1F70197D9F780E060E07E
:1007500040E00E94F90088E893E1FE013197F1F74B
:100760000197D9F7E1CFFB019F01E8944230C4F033
:100770004532B4F44A3029F497FB1EF490958195E4
:100780009F4F642F77270E947606805D8A330CF096
:10079000895D8193CB010097A1F716F45DE2519337
:1007A0001082C9010C94DC05A0E0B0E0EAEDF3E0B2
:1007B0000C949A06FE0135966191719180915D01CC
:1007C00090915E01AF010E94E9032096E2E00C9453
:1007D000B606ABE0B0E0EFEEF3E00C948A063C0125
:1007E0002B015A01FC0117821682838181FD03C00F
:1007F0006FEF7FEFC6C19AE0892E1E010894211C7D
:10080000311CF3012381F20123FD859123FF8191A6
:100810002F01882309F4B2C1853239F423FD859173
:1008200023FF81912F01853229F490E0B3010E94CA
:10083000EC05E7CF982FFF24EE249924FFE1FF1564
:10084000D0F09B3269F09C3228F4903259F0933208
:1008500091F40EC09D3249F0903369F441E024C018
:1008600052E0F52A84E0F82A28C098E0F92A25C049
:10087000E0E1FE2A22C0F7FC29C0892F80538A308C
:1008800070F4F6FE05C0989C902C1124980E15C0AB
:10089000E89CE02C1124E80EF0E2FF2A0EC09E3204
:1008A00029F4F6FC6BC140E4F42A07C09C3619F425
:1008B00050E8F52A02C0983649F4F20123FD9591DB
:1008C00023FF91912F01992309F0B8CF892F8554E7
:1008D000833018F08052833038F444E050E0A40EA6
:1008E000B51E5FE359830FC0933631F0933779F02B
:1008F000933509F056C020C0F5018081898342E01C
:1009000050E0A40EB51E610101E010E012C0F50137
:10091000C080D180F6FC03C06FEF7FEF02C0692D6D
:1009200070E042E050E0A40EB51EC6010E94D10561
:100930008C015FE7F52214C0F501C080D180F6FC80
:1009400003C06FEF7FEF02C0692D70E042E050E01E
:10095000A40EB51EC6010E94C6058C0150E8F52AFA
:10096000F3FE07C01AC080E290E0B3010E94EC05DC
:10097000EA948E2D90E008171907A8F30EC0F6012F
:10098000F7FC8591F7FE81916F0190E0B3010E9421
:10099000EC05E110EA94015010400115110579F7BA
:1009A000EAC0943611F0993669F5F7FE08C0F501F2
:1009B000208131814281538184E090E00AC0F501B9
:1009C000808191819C01442737FD4095542F82E01E
:1009D00090E0A80EB91E9FE6F92257FF09C0509576
:1009E0004095309521953F4F4F4F5F4FE0E8FE2AED
:1009F000CA01B901A1012AE030E00E941806D82EF0
:100A0000D21840C0953729F41F2D1F7E2AE030E010
:100A10001DC01F2D197F9F3661F0903720F4983547
:100A200009F0ACC00FC0903739F0983709F0A6C074
:100A300004C028E030E00AC0106114FD146020E119
:100A400030E004C014FD166020E132E017FF08C05A
:100A5000F501608171818281938144E050E008C09A
:100A6000F50180819181BC0180E090E042E050E09E
:100A7000A40EB51EA1010E941806D82ED2188FE729
:100A8000F82EF122F6FE0BC05EEFF522D91438F4F1
:100A9000F4FE07C0F2FC05C08FEEF82202C01D2D47
:100AA00001C0192DF4FE0DC0FE01ED0DF11D808178
:100AB000803319F499EEF92208C01F5FF2FE05C0D9
:100AC00003C08F2D867809F01F5F0F2DF3FC14C033
:100AD000F0FE0FC01E1510F09D2C0BC09D2C9E0C1F
:100AE000911A1E2D06C080E290E0B3010E94EC0531
:100AF0001F5F1E15C0F304C01E1510F4E11A01C0DB
:100B0000EE2404FF0FC080E390E0B3010E94EC05E7
:100B100002FF1DC001FD03C088E790E00EC088E51C
:100B200090E00BC0802F867891F001FF02C08BE22D
:100B300001C080E2F7FC8DE290E0B3010E94EC0579
:100B400006C080E390E0B3010E94EC059A94D914AA
:100B5000C0F3DA94F101ED0DF11D808190E0B30155
:100B60000E94EC05DD20A9F706C080E290E0B30109
:100B70000E94EC05EA94EE20C1F743CEF3016681B2
:100B80007781CB012B96E2E10C94A606FC0105903F
:100B9000615070400110D8F7809590958E0F9F1F7F
:100BA0000895FC016150704001900110D8F78095C4
:100BB00090958E0F9F1F0895DC01FC01672F7191A6
:100BC0007723E1F7329704C07C916D937083629133
:100BD000AE17BF07C8F308950F931F93CF93DF930A
:100BE0008C01EB018B8181FF1BC082FF0DC02E8128
:100BF0003F818C819D812817390764F4E881F98150
:100C00000193F983E88306C0E885F985802F09956B
:100C1000892B31F48E819F8101969F838E8302C040
:100C20000FEF1FEFC801DF91CF911F910F91089532
:100C3000FA01AA27283051F1203181F1E8946F930D
:100C40006E7F6E5F7F4F8F4F9F4FAF4FB1E03ED0B3
:100C5000B4E03CD0670F781F891F9A1FA11D680F51
:100C6000791F8A1F911DA11D6A0F711D811D911D84
:100C7000A11D20D009F468943F912AE0269F1124F9
:100C80003019305D3193DEF6CF010895462F47705D
:100C9000405D4193B3E00FD0C9F7F6CF462F4F70B8
:100CA000405D4A3318F0495D31FD4052419302D016
:100CB000A9F7EACFB4E0A6959795879577956795BC
:100CC000BA95C9F700976105710508959B01AC01BC
:100CD0000A2E06945795479537952795BA95C9F7E3
:100CE000620F731F841F951FA01D0895AA1BBB1BB5
:100CF00051E107C0AA1FBB1FA617B70710F0A61B1C
:100D0000B70B881F991F5A95A9F780959095BC013C
:100D1000CD0108952F923F924F925F926F927F92F2
:100D20008F929F92AF92BF92CF92DF92EF92FF92FB
:100D30000F931F93CF93DF93CDB7DEB7CA1BDB0BA7
:100D40000FB6F894DEBF0FBECDBF09942A8839884C
:100D500048885F846E847D848C849B84AA84B98453
:100D6000C884DF80EE80FD800C811B81AA81B9815F
:100D7000CE0FD11D0FB6F894DEBF0FBECDBFED0173
:060D80000895F894FFCF76
:100D86002573202020202564004D757374617068DA
:100D96006100000000000000000000000057041180
:100DA6002745736C616D0000000000000000000024
:100DB6000000000000AE081A27596F757373656648
:100DC60000000000000000000000000000050D1BF0
:100DD6002741686D65640000000000000000000007
:100DE60000000000005C1174274D6F68616D6D6531
:100DF60064000000000000000000000000B315754C
:100E0600274F6D6172000000000000000000000026
:100E160000000000000A1A7E27456D61640000008C
:100E260000000000000000000000000000611E7FBE
:100E3600274D61686D6F75640000000000000000BA
:100E46000000000000B822F82A53616D69720000A4
:100E5600000000000000000000000000000F27F95D
:100E66002A4D75737461706861000000000000000F
:0A0E760000000000001027022B000E
:00000001FF
